{
  "contractName": "MyNFTs",
  "abi": [
    {
      "inputs": [],
      "stateMutability": "nonpayable",
      "type": "constructor"
    },
    {
      "anonymous": false,
      "inputs": [
        {
          "indexed": true,
          "internalType": "address",
          "name": "owner",
          "type": "address"
        },
        {
          "indexed": true,
          "internalType": "address",
          "name": "approved",
          "type": "address"
        },
        {
          "indexed": true,
          "internalType": "uint256",
          "name": "tokenId",
          "type": "uint256"
        }
      ],
      "name": "Approval",
      "type": "event"
    },
    {
      "anonymous": false,
      "inputs": [
        {
          "indexed": true,
          "internalType": "address",
          "name": "owner",
          "type": "address"
        },
        {
          "indexed": true,
          "internalType": "address",
          "name": "operator",
          "type": "address"
        },
        {
          "indexed": false,
          "internalType": "bool",
          "name": "approved",
          "type": "bool"
        }
      ],
      "name": "ApprovalForAll",
      "type": "event"
    },
    {
      "anonymous": false,
      "inputs": [
        {
          "indexed": true,
          "internalType": "address",
          "name": "previousOwner",
          "type": "address"
        },
        {
          "indexed": true,
          "internalType": "address",
          "name": "newOwner",
          "type": "address"
        }
      ],
      "name": "OwnershipTransferred",
      "type": "event"
    },
    {
      "anonymous": false,
      "inputs": [
        {
          "indexed": true,
          "internalType": "address",
          "name": "from",
          "type": "address"
        },
        {
          "indexed": true,
          "internalType": "address",
          "name": "to",
          "type": "address"
        },
        {
          "indexed": true,
          "internalType": "uint256",
          "name": "tokenId",
          "type": "uint256"
        }
      ],
      "name": "Transfer",
      "type": "event"
    },
    {
      "anonymous": false,
      "inputs": [
        {
          "indexed": false,
          "internalType": "string",
          "name": "tokenURI",
          "type": "string"
        }
      ],
      "name": "minting",
      "type": "event"
    },
    {
      "inputs": [
        {
          "internalType": "address",
          "name": "to",
          "type": "address"
        },
        {
          "internalType": "uint256",
          "name": "tokenId",
          "type": "uint256"
        }
      ],
      "name": "approve",
      "outputs": [],
      "stateMutability": "nonpayable",
      "type": "function"
    },
    {
      "inputs": [
        {
          "internalType": "address",
          "name": "owner",
          "type": "address"
        }
      ],
      "name": "balanceOf",
      "outputs": [
        {
          "internalType": "uint256",
          "name": "",
          "type": "uint256"
        }
      ],
      "stateMutability": "view",
      "type": "function",
      "constant": true
    },
    {
      "inputs": [
        {
          "internalType": "uint256",
          "name": "tokenId",
          "type": "uint256"
        }
      ],
      "name": "getApproved",
      "outputs": [
        {
          "internalType": "address",
          "name": "",
          "type": "address"
        }
      ],
      "stateMutability": "view",
      "type": "function",
      "constant": true
    },
    {
      "inputs": [
        {
          "internalType": "address",
          "name": "owner",
          "type": "address"
        },
        {
          "internalType": "address",
          "name": "operator",
          "type": "address"
        }
      ],
      "name": "isApprovedForAll",
      "outputs": [
        {
          "internalType": "bool",
          "name": "",
          "type": "bool"
        }
      ],
      "stateMutability": "view",
      "type": "function",
      "constant": true
    },
    {
      "inputs": [],
      "name": "name",
      "outputs": [
        {
          "internalType": "string",
          "name": "",
          "type": "string"
        }
      ],
      "stateMutability": "view",
      "type": "function",
      "constant": true
    },
    {
      "inputs": [],
      "name": "owner",
      "outputs": [
        {
          "internalType": "address",
          "name": "",
          "type": "address"
        }
      ],
      "stateMutability": "view",
      "type": "function",
      "constant": true
    },
    {
      "inputs": [
        {
          "internalType": "uint256",
          "name": "tokenId",
          "type": "uint256"
        }
      ],
      "name": "ownerOf",
      "outputs": [
        {
          "internalType": "address",
          "name": "",
          "type": "address"
        }
      ],
      "stateMutability": "view",
      "type": "function",
      "constant": true
    },
    {
      "inputs": [],
      "name": "renounceOwnership",
      "outputs": [],
      "stateMutability": "nonpayable",
      "type": "function"
    },
    {
      "inputs": [
        {
          "internalType": "address",
          "name": "from",
          "type": "address"
        },
        {
          "internalType": "address",
          "name": "to",
          "type": "address"
        },
        {
          "internalType": "uint256",
          "name": "tokenId",
          "type": "uint256"
        }
      ],
      "name": "safeTransferFrom",
      "outputs": [],
      "stateMutability": "nonpayable",
      "type": "function"
    },
    {
      "inputs": [
        {
          "internalType": "address",
          "name": "from",
          "type": "address"
        },
        {
          "internalType": "address",
          "name": "to",
          "type": "address"
        },
        {
          "internalType": "uint256",
          "name": "tokenId",
          "type": "uint256"
        },
        {
          "internalType": "bytes",
          "name": "data",
          "type": "bytes"
        }
      ],
      "name": "safeTransferFrom",
      "outputs": [],
      "stateMutability": "nonpayable",
      "type": "function"
    },
    {
      "inputs": [
        {
          "internalType": "address",
          "name": "operator",
          "type": "address"
        },
        {
          "internalType": "bool",
          "name": "approved",
          "type": "bool"
        }
      ],
      "name": "setApprovalForAll",
      "outputs": [],
      "stateMutability": "nonpayable",
      "type": "function"
    },
    {
      "inputs": [
        {
          "internalType": "bytes4",
          "name": "interfaceId",
          "type": "bytes4"
        }
      ],
      "name": "supportsInterface",
      "outputs": [
        {
          "internalType": "bool",
          "name": "",
          "type": "bool"
        }
      ],
      "stateMutability": "view",
      "type": "function",
      "constant": true
    },
    {
      "inputs": [],
      "name": "symbol",
      "outputs": [
        {
          "internalType": "string",
          "name": "",
          "type": "string"
        }
      ],
      "stateMutability": "view",
      "type": "function",
      "constant": true
    },
    {
      "inputs": [
        {
          "internalType": "uint256",
          "name": "tokenId",
          "type": "uint256"
        }
      ],
      "name": "tokenURI",
      "outputs": [
        {
          "internalType": "string",
          "name": "",
          "type": "string"
        }
      ],
      "stateMutability": "view",
      "type": "function",
      "constant": true
    },
    {
      "inputs": [
        {
          "internalType": "address",
          "name": "from",
          "type": "address"
        },
        {
          "internalType": "address",
          "name": "to",
          "type": "address"
        },
        {
          "internalType": "uint256",
          "name": "tokenId",
          "type": "uint256"
        }
      ],
      "name": "transferFrom",
      "outputs": [],
      "stateMutability": "nonpayable",
      "type": "function"
    },
    {
      "inputs": [
        {
          "internalType": "address",
          "name": "newOwner",
          "type": "address"
        }
      ],
      "name": "transferOwnership",
      "outputs": [],
      "stateMutability": "nonpayable",
      "type": "function"
    },
    {
      "inputs": [
        {
          "internalType": "string",
          "name": "tokenURI",
          "type": "string"
        }
      ],
      "name": "mintNFT",
      "outputs": [
        {
          "internalType": "uint256",
          "name": "",
          "type": "uint256"
        }
      ],
      "stateMutability": "nonpayable",
      "type": "function"
    }
  ],
  "bytecode": "0x60806040523480156200001157600080fd5b506040518060400160405280600681526020017f4d794e46547300000000000000000000000000000000000000000000000000008152506040518060400160405280600481526020017f4d4e46540000000000000000000000000000000000000000000000000000000081525081600090816200008f919062000412565b508060019081620000a1919062000412565b505050620000c4620000b8620000ca60201b60201c565b620000d260201b60201c565b620004f9565b600033905090565b6000600760009054906101000a900473ffffffffffffffffffffffffffffffffffffffff16905081600760006101000a81548173ffffffffffffffffffffffffffffffffffffffff021916908373ffffffffffffffffffffffffffffffffffffffff1602179055508173ffffffffffffffffffffffffffffffffffffffff168173ffffffffffffffffffffffffffffffffffffffff167f8be0079c531659141344cd1fd0a4f28419497f9722a3daafe3b4186f6b6457e060405160405180910390a35050565b600081519050919050565b7f4e487b7100000000000000000000000000000000000000000000000000000000600052604160045260246000fd5b7f4e487b7100000000000000000000000000000000000000000000000000000000600052602260045260246000fd5b600060028204905060018216806200021a57607f821691505b60208210810362000230576200022f620001d2565b5b50919050565b60008190508160005260206000209050919050565b60006020601f8301049050919050565b600082821b905092915050565b6000600883026200029a7fffffffffffffffffffffffffffffffffffffffffffffffffffffffffffffffff826200025b565b620002a686836200025b565b95508019841693508086168417925050509392505050565b6000819050919050565b6000819050919050565b6000620002f3620002ed620002e784620002be565b620002c8565b620002be565b9050919050565b6000819050919050565b6200030f83620002d2565b620003276200031e82620002fa565b84845462000268565b825550505050565b600090565b6200033e6200032f565b6200034b81848462000304565b505050565b5b8181101562000373576200036760008262000334565b60018101905062000351565b5050565b601f821115620003c2576200038c8162000236565b62000397846200024b565b81016020851015620003a7578190505b620003bf620003b6856200024b565b83018262000350565b50505b505050565b600082821c905092915050565b6000620003e760001984600802620003c7565b1980831691505092915050565b6000620004028383620003d4565b9150826002028217905092915050565b6200041d8262000198565b67ffffffffffffffff811115620004395762000438620001a3565b5b62000445825462000201565b6200045282828562000377565b600060209050601f8311600181146200048a576000841562000475578287015190505b620004818582620003f4565b865550620004f1565b601f1984166200049a8662000236565b60005b82811015620004c4578489015182556001820191506020850194506020810190506200049d565b86831015620004e45784890151620004e0601f891682620003d4565b8355505b6001600288020188555050505b505050505050565b6131d180620005096000396000f3fe608060405234801561001057600080fd5b506004361061010b5760003560e01c8063715018a6116100a2578063b88d4fde11610071578063b88d4fde146102a4578063c87b56dd146102c0578063e985e9c5146102f0578063f2fde38b14610320578063fb37e8831461033c5761010b565b8063715018a6146102425780638da5cb5b1461024c57806395d89b411461026a578063a22cb465146102885761010b565b806323b872dd116100de57806323b872dd146101aa57806342842e0e146101c65780636352211e146101e257806370a08231146102125761010b565b806301ffc9a71461011057806306fdde0314610140578063081812fc1461015e578063095ea7b31461018e575b600080fd5b61012a60048036038101906101259190611bf7565b61036c565b6040516101379190611c3f565b60405180910390f35b61014861044e565b6040516101559190611cea565b60405180910390f35b61017860048036038101906101739190611d42565b6104e0565b6040516101859190611db0565b60405180910390f35b6101a860048036038101906101a39190611df7565b610565565b005b6101c460048036038101906101bf9190611e37565b61067c565b005b6101e060048036038101906101db9190611e37565b6106dc565b005b6101fc60048036038101906101f79190611d42565b6106fc565b6040516102099190611db0565b60405180910390f35b61022c60048036038101906102279190611e8a565b6107ad565b6040516102399190611ec6565b60405180910390f35b61024a610864565b005b6102546108ec565b6040516102619190611db0565b60405180910390f35b610272610916565b60405161027f9190611cea565b60405180910390f35b6102a2600480360381019061029d9190611f0d565b6109a8565b005b6102be60048036038101906102b99190612082565b6109be565b005b6102da60048036038101906102d59190611d42565b610a20565b6040516102e79190611cea565b60405180910390f35b61030a60048036038101906103059190612105565b610b71565b6040516103179190611c3f565b60405180910390f35b61033a60048036038101906103359190611e8a565b610c05565b005b610356600480360381019061035191906121e6565b610cfc565b6040516103639190611ec6565b60405180910390f35b60007f80ac58cd000000000000000000000000000000000000000000000000000000007bffffffffffffffffffffffffffffffffffffffffffffffffffffffff1916827bffffffffffffffffffffffffffffffffffffffffffffffffffffffff1916148061043757507f5b5e139f000000000000000000000000000000000000000000000000000000007bffffffffffffffffffffffffffffffffffffffffffffffffffffffff1916827bffffffffffffffffffffffffffffffffffffffffffffffffffffffff1916145b80610447575061044682610de6565b5b9050919050565b60606000805461045d9061225e565b80601f01602080910402602001604051908101604052809291908181526020018280546104899061225e565b80156104d65780601f106104ab576101008083540402835291602001916104d6565b820191906000526020600020905b8154815290600101906020018083116104b957829003601f168201915b5050505050905090565b60006104eb82610e50565b61052a576040517f08c379a000000000000000000000000000000000000000000000000000000000815260040161052190612301565b60405180910390fd5b6004600083815260200190815260200160002060009054906101000a900473ffffffffffffffffffffffffffffffffffffffff169050919050565b6000610570826106fc565b90508073ffffffffffffffffffffffffffffffffffffffff168373ffffffffffffffffffffffffffffffffffffffff16036105e0576040517f08c379a00000000000000000000000000000000000000000000000000000000081526004016105d790612393565b60405180910390fd5b8073ffffffffffffffffffffffffffffffffffffffff166105ff610ebc565b73ffffffffffffffffffffffffffffffffffffffff16148061062e575061062d81610628610ebc565b610b71565b5b61066d576040517f08c379a000000000000000000000000000000000000000000000000000000000815260040161066490612425565b60405180910390fd5b6106778383610ec4565b505050565b61068d610687610ebc565b82610f7d565b6106cc576040517f08c379a00000000000000000000000000000000000000000000000000000000081526004016106c3906124b7565b60405180910390fd5b6106d783838361105b565b505050565b6106f7838383604051806020016040528060008152506109be565b505050565b6000806002600084815260200190815260200160002060009054906101000a900473ffffffffffffffffffffffffffffffffffffffff169050600073ffffffffffffffffffffffffffffffffffffffff168173ffffffffffffffffffffffffffffffffffffffff16036107a4576040517f08c379a000000000000000000000000000000000000000000000000000000000815260040161079b90612549565b60405180910390fd5b80915050919050565b60008073ffffffffffffffffffffffffffffffffffffffff168273ffffffffffffffffffffffffffffffffffffffff160361081d576040517f08c379a0000000000000000000000000000000000000000000000000000000008152600401610814906125db565b60405180910390fd5b600360008373ffffffffffffffffffffffffffffffffffffffff1673ffffffffffffffffffffffffffffffffffffffff168152602001908152602001600020549050919050565b61086c610ebc565b73ffffffffffffffffffffffffffffffffffffffff1661088a6108ec565b73ffffffffffffffffffffffffffffffffffffffff16146108e0576040517f08c379a00000000000000000000000000000000000000000000000000000000081526004016108d790612647565b60405180910390fd5b6108ea60006112c1565b565b6000600760009054906101000a900473ffffffffffffffffffffffffffffffffffffffff16905090565b6060600180546109259061225e565b80601f01602080910402602001604051908101604052809291908181526020018280546109519061225e565b801561099e5780601f106109735761010080835404028352916020019161099e565b820191906000526020600020905b81548152906001019060200180831161098157829003601f168201915b5050505050905090565b6109ba6109b3610ebc565b8383611387565b5050565b6109cf6109c9610ebc565b83610f7d565b610a0e576040517f08c379a0000000000000000000000000000000000000000000000000000000008152600401610a05906124b7565b60405180910390fd5b610a1a848484846114f3565b50505050565b6060610a2b82610e50565b610a6a576040517f08c379a0000000000000000000000000000000000000000000000000000000008152600401610a61906126d9565b60405180910390fd5b6000600660008481526020019081526020016000208054610a8a9061225e565b80601f0160208091040260200160405190810160405280929190818152602001828054610ab69061225e565b8015610b035780601f10610ad857610100808354040283529160200191610b03565b820191906000526020600020905b815481529060010190602001808311610ae657829003601f168201915b505050505090506000610b1461154f565b90506000815103610b29578192505050610b6c565b600082511115610b5e578082604051602001610b46929190612735565b60405160208183030381529060405292505050610b6c565b610b6784611566565b925050505b919050565b6000600560008473ffffffffffffffffffffffffffffffffffffffff1673ffffffffffffffffffffffffffffffffffffffff16815260200190815260200160002060008373ffffffffffffffffffffffffffffffffffffffff1673ffffffffffffffffffffffffffffffffffffffff16815260200190815260200160002060009054906101000a900460ff16905092915050565b610c0d610ebc565b73ffffffffffffffffffffffffffffffffffffffff16610c2b6108ec565b73ffffffffffffffffffffffffffffffffffffffff1614610c81576040517f08c379a0000000000000000000000000000000000000000000000000000000008152600401610c7890612647565b60405180910390fd5b600073ffffffffffffffffffffffffffffffffffffffff168173ffffffffffffffffffffffffffffffffffffffff1603610cf0576040517f08c379a0000000000000000000000000000000000000000000000000000000008152600401610ce7906127cb565b60405180910390fd5b610cf9816112c1565b50565b6000610d06610ebc565b73ffffffffffffffffffffffffffffffffffffffff16610d246108ec565b73ffffffffffffffffffffffffffffffffffffffff1614610d7a576040517f08c379a0000000000000000000000000000000000000000000000000000000008152600401610d7190612647565b60405180910390fd5b610d84600861160d565b6000610d906008611623565b9050610d9c3382611631565b610da6818461180a565b7f0bdc90082eaa99c99327b029334138eb242097ffdddb89eead731c9debd6dd0983604051610dd59190611cea565b60405180910390a180915050919050565b60007f01ffc9a7000000000000000000000000000000000000000000000000000000007bffffffffffffffffffffffffffffffffffffffffffffffffffffffff1916827bffffffffffffffffffffffffffffffffffffffffffffffffffffffff1916149050919050565b60008073ffffffffffffffffffffffffffffffffffffffff166002600084815260200190815260200160002060009054906101000a900473ffffffffffffffffffffffffffffffffffffffff1673ffffffffffffffffffffffffffffffffffffffff1614159050919050565b600033905090565b816004600083815260200190815260200160002060006101000a81548173ffffffffffffffffffffffffffffffffffffffff021916908373ffffffffffffffffffffffffffffffffffffffff160217905550808273ffffffffffffffffffffffffffffffffffffffff16610f37836106fc565b73ffffffffffffffffffffffffffffffffffffffff167f8c5be1e5ebec7d5bd14f71427d1e84f3dd0314c0f7b2291e5b200ac8c7c3b92560405160405180910390a45050565b6000610f8882610e50565b610fc7576040517f08c379a0000000000000000000000000000000000000000000000000000000008152600401610fbe9061285d565b60405180910390fd5b6000610fd2836106fc565b90508073ffffffffffffffffffffffffffffffffffffffff168473ffffffffffffffffffffffffffffffffffffffff16148061101457506110138185610b71565b5b8061105257508373ffffffffffffffffffffffffffffffffffffffff1661103a846104e0565b73ffffffffffffffffffffffffffffffffffffffff16145b91505092915050565b8273ffffffffffffffffffffffffffffffffffffffff1661107b826106fc565b73ffffffffffffffffffffffffffffffffffffffff16146110d1576040517f08c379a00000000000000000000000000000000000000000000000000000000081526004016110c8906128ef565b60405180910390fd5b600073ffffffffffffffffffffffffffffffffffffffff168273ffffffffffffffffffffffffffffffffffffffff1603611140576040517f08c379a000000000000000000000000000000000000000000000000000000000815260040161113790612981565b60405180910390fd5b61114b838383611877565b611156600082610ec4565b6001600360008573ffffffffffffffffffffffffffffffffffffffff1673ffffffffffffffffffffffffffffffffffffffff16815260200190815260200160002060008282546111a691906129d0565b925050819055506001600360008473ffffffffffffffffffffffffffffffffffffffff1673ffffffffffffffffffffffffffffffffffffffff16815260200190815260200160002060008282546111fd9190612a04565b92505081905550816002600083815260200190815260200160002060006101000a81548173ffffffffffffffffffffffffffffffffffffffff021916908373ffffffffffffffffffffffffffffffffffffffff160217905550808273ffffffffffffffffffffffffffffffffffffffff168473ffffffffffffffffffffffffffffffffffffffff167fddf252ad1be2c89b69c2b068fc378daa952ba7f163c4a11628f55a4df523b3ef60405160405180910390a46112bc83838361187c565b505050565b6000600760009054906101000a900473ffffffffffffffffffffffffffffffffffffffff16905081600760006101000a81548173ffffffffffffffffffffffffffffffffffffffff021916908373ffffffffffffffffffffffffffffffffffffffff1602179055508173ffffffffffffffffffffffffffffffffffffffff168173ffffffffffffffffffffffffffffffffffffffff167f8be0079c531659141344cd1fd0a4f28419497f9722a3daafe3b4186f6b6457e060405160405180910390a35050565b8173ffffffffffffffffffffffffffffffffffffffff168373ffffffffffffffffffffffffffffffffffffffff16036113f5576040517f08c379a00000000000000000000000000000000000000000000000000000000081526004016113ec90612a84565b60405180910390fd5b80600560008573ffffffffffffffffffffffffffffffffffffffff1673ffffffffffffffffffffffffffffffffffffffff16815260200190815260200160002060008473ffffffffffffffffffffffffffffffffffffffff1673ffffffffffffffffffffffffffffffffffffffff16815260200190815260200160002060006101000a81548160ff0219169083151502179055508173ffffffffffffffffffffffffffffffffffffffff168373ffffffffffffffffffffffffffffffffffffffff167f17307eab39ab6107e8899845ad3d59bd9653f200f220920489ca2b5937696c31836040516114e69190611c3f565b60405180910390a3505050565b6114fe84848461105b565b61150a84848484611881565b611549576040517f08c379a000000000000000000000000000000000000000000000000000000000815260040161154090612b16565b60405180910390fd5b50505050565b606060405180602001604052806000815250905090565b606061157182610e50565b6115b0576040517f08c379a00000000000000000000000000000000000000000000000000000000081526004016115a790612ba8565b60405180910390fd5b60006115ba61154f565b905060008151116115da5760405180602001604052806000815250611605565b806115e484611a08565b6040516020016115f5929190612735565b6040516020818303038152906040525b915050919050565b6001816000016000828254019250508190555050565b600081600001549050919050565b600073ffffffffffffffffffffffffffffffffffffffff168273ffffffffffffffffffffffffffffffffffffffff16036116a0576040517f08c379a000000000000000000000000000000000000000000000000000000000815260040161169790612c14565b60405180910390fd5b6116a981610e50565b156116e9576040517f08c379a00000000000000000000000000000000000000000000000000000000081526004016116e090612c80565b60405180910390fd5b6116f560008383611877565b6001600360008473ffffffffffffffffffffffffffffffffffffffff1673ffffffffffffffffffffffffffffffffffffffff16815260200190815260200160002060008282546117459190612a04565b92505081905550816002600083815260200190815260200160002060006101000a81548173ffffffffffffffffffffffffffffffffffffffff021916908373ffffffffffffffffffffffffffffffffffffffff160217905550808273ffffffffffffffffffffffffffffffffffffffff16600073ffffffffffffffffffffffffffffffffffffffff167fddf252ad1be2c89b69c2b068fc378daa952ba7f163c4a11628f55a4df523b3ef60405160405180910390a46118066000838361187c565b5050565b61181382610e50565b611852576040517f08c379a000000000000000000000000000000000000000000000000000000000815260040161184990612d12565b60405180910390fd5b806006600084815260200190815260200160002090816118729190612ede565b505050565b505050565b505050565b60006118a28473ffffffffffffffffffffffffffffffffffffffff16611b68565b156119fb578373ffffffffffffffffffffffffffffffffffffffff1663150b7a026118cb610ebc565b8786866040518563ffffffff1660e01b81526004016118ed9493929190613005565b6020604051808303816000875af192505050801561192957506040513d601f19601f820116820180604052508101906119269190613066565b60015b6119ab573d8060008114611959576040519150601f19603f3d011682016040523d82523d6000602084013e61195e565b606091505b5060008151036119a3576040517f08c379a000000000000000000000000000000000000000000000000000000000815260040161199a90612b16565b60405180910390fd5b805181602001fd5b63150b7a0260e01b7bffffffffffffffffffffffffffffffffffffffffffffffffffffffff1916817bffffffffffffffffffffffffffffffffffffffffffffffffffffffff191614915050611a00565b600190505b949350505050565b606060008203611a4f576040518060400160405280600181526020017f30000000000000000000000000000000000000000000000000000000000000008152509050611b63565b600082905060005b60008214611a81578080611a6a90613093565b915050600a82611a7a919061310a565b9150611a57565b60008167ffffffffffffffff811115611a9d57611a9c611f57565b5b6040519080825280601f01601f191660200182016040528015611acf5781602001600182028036833780820191505090505b5090505b60008514611b5c57600182611ae891906129d0565b9150600a85611af7919061313b565b6030611b039190612a04565b60f81b818381518110611b1957611b1861316c565b5b60200101907effffffffffffffffffffffffffffffffffffffffffffffffffffffffffffff1916908160001a905350600a85611b55919061310a565b9450611ad3565b8093505050505b919050565b6000808273ffffffffffffffffffffffffffffffffffffffff163b119050919050565b6000604051905090565b600080fd5b600080fd5b60007fffffffff0000000000000000000000000000000000000000000000000000000082169050919050565b611bd481611b9f565b8114611bdf57600080fd5b50565b600081359050611bf181611bcb565b92915050565b600060208284031215611c0d57611c0c611b95565b5b6000611c1b84828501611be2565b91505092915050565b60008115159050919050565b611c3981611c24565b82525050565b6000602082019050611c546000830184611c30565b92915050565b600081519050919050565b600082825260208201905092915050565b60005b83811015611c94578082015181840152602081019050611c79565b60008484015250505050565b6000601f19601f8301169050919050565b6000611cbc82611c5a565b611cc68185611c65565b9350611cd6818560208601611c76565b611cdf81611ca0565b840191505092915050565b60006020820190508181036000830152611d048184611cb1565b905092915050565b6000819050919050565b611d1f81611d0c565b8114611d2a57600080fd5b50565b600081359050611d3c81611d16565b92915050565b600060208284031215611d5857611d57611b95565b5b6000611d6684828501611d2d565b91505092915050565b600073ffffffffffffffffffffffffffffffffffffffff82169050919050565b6000611d9a82611d6f565b9050919050565b611daa81611d8f565b82525050565b6000602082019050611dc56000830184611da1565b92915050565b611dd481611d8f565b8114611ddf57600080fd5b50565b600081359050611df181611dcb565b92915050565b60008060408385031215611e0e57611e0d611b95565b5b6000611e1c85828601611de2565b9250506020611e2d85828601611d2d565b9150509250929050565b600080600060608486031215611e5057611e4f611b95565b5b6000611e5e86828701611de2565b9350506020611e6f86828701611de2565b9250506040611e8086828701611d2d565b9150509250925092565b600060208284031215611ea057611e9f611b95565b5b6000611eae84828501611de2565b91505092915050565b611ec081611d0c565b82525050565b6000602082019050611edb6000830184611eb7565b92915050565b611eea81611c24565b8114611ef557600080fd5b50565b600081359050611f0781611ee1565b92915050565b60008060408385031215611f2457611f23611b95565b5b6000611f3285828601611de2565b9250506020611f4385828601611ef8565b9150509250929050565b600080fd5b600080fd5b7f4e487b7100000000000000000000000000000000000000000000000000000000600052604160045260246000fd5b611f8f82611ca0565b810181811067ffffffffffffffff82111715611fae57611fad611f57565b5b80604052505050565b6000611fc1611b8b565b9050611fcd8282611f86565b919050565b600067ffffffffffffffff821115611fed57611fec611f57565b5b611ff682611ca0565b9050602081019050919050565b82818337600083830152505050565b600061202561202084611fd2565b611fb7565b90508281526020810184848401111561204157612040611f52565b5b61204c848285612003565b509392505050565b600082601f83011261206957612068611f4d565b5b8135612079848260208601612012565b91505092915050565b6000806000806080858703121561209c5761209b611b95565b5b60006120aa87828801611de2565b94505060206120bb87828801611de2565b93505060406120cc87828801611d2d565b925050606085013567ffffffffffffffff8111156120ed576120ec611b9a565b5b6120f987828801612054565b91505092959194509250565b6000806040838503121561211c5761211b611b95565b5b600061212a85828601611de2565b925050602061213b85828601611de2565b9150509250929050565b600067ffffffffffffffff8211156121605761215f611f57565b5b61216982611ca0565b9050602081019050919050565b600061218961218484612145565b611fb7565b9050828152602081018484840111156121a5576121a4611f52565b5b6121b0848285612003565b509392505050565b600082601f8301126121cd576121cc611f4d565b5b81356121dd848260208601612176565b91505092915050565b6000602082840312156121fc576121fb611b95565b5b600082013567ffffffffffffffff81111561221a57612219611b9a565b5b612226848285016121b8565b91505092915050565b7f4e487b7100000000000000000000000000000000000000000000000000000000600052602260045260246000fd5b6000600282049050600182168061227657607f821691505b6020821081036122895761228861222f565b5b50919050565b7f4552433732313a20617070726f76656420717565727920666f72206e6f6e657860008201527f697374656e7420746f6b656e0000000000000000000000000000000000000000602082015250565b60006122eb602c83611c65565b91506122f68261228f565b604082019050919050565b6000602082019050818103600083015261231a816122de565b9050919050565b7f4552433732313a20617070726f76616c20746f2063757272656e74206f776e6560008201527f7200000000000000000000000000000000000000000000000000000000000000602082015250565b600061237d602183611c65565b915061238882612321565b604082019050919050565b600060208201905081810360008301526123ac81612370565b9050919050565b7f4552433732313a20617070726f76652063616c6c6572206973206e6f74206f7760008201527f6e6572206e6f7220617070726f76656420666f7220616c6c0000000000000000602082015250565b600061240f603883611c65565b915061241a826123b3565b604082019050919050565b6000602082019050818103600083015261243e81612402565b9050919050565b7f4552433732313a207472616e736665722063616c6c6572206973206e6f74206f60008201527f776e6572206e6f7220617070726f766564000000000000000000000000000000602082015250565b60006124a1603183611c65565b91506124ac82612445565b604082019050919050565b600060208201905081810360008301526124d081612494565b9050919050565b7f4552433732313a206f776e657220717565727920666f72206e6f6e657869737460008201527f656e7420746f6b656e0000000000000000000000000000000000000000000000602082015250565b6000612533602983611c65565b915061253e826124d7565b604082019050919050565b6000602082019050818103600083015261256281612526565b9050919050565b7f4552433732313a2061646472657373207a65726f206973206e6f74206120766160008201527f6c6964206f776e65720000000000000000000000000000000000000000000000602082015250565b60006125c5602983611c65565b91506125d082612569565b604082019050919050565b600060208201905081810360008301526125f4816125b8565b9050919050565b7f4f776e61626c653a2063616c6c6572206973206e6f7420746865206f776e6572600082015250565b6000612631602083611c65565b915061263c826125fb565b602082019050919050565b6000602082019050818103600083015261266081612624565b9050919050565b7f45524337323155524953746f726167653a2055524920717565727920666f722060008201527f6e6f6e6578697374656e7420746f6b656e000000000000000000000000000000602082015250565b60006126c3603183611c65565b91506126ce82612667565b604082019050919050565b600060208201905081810360008301526126f2816126b6565b9050919050565b600081905092915050565b600061270f82611c5a565b61271981856126f9565b9350612729818560208601611c76565b80840191505092915050565b60006127418285612704565b915061274d8284612704565b91508190509392505050565b7f4f776e61626c653a206e6577206f776e657220697320746865207a65726f206160008201527f6464726573730000000000000000000000000000000000000000000000000000602082015250565b60006127b5602683611c65565b91506127c082612759565b604082019050919050565b600060208201905081810360008301526127e4816127a8565b9050919050565b7f4552433732313a206f70657261746f7220717565727920666f72206e6f6e657860008201527f697374656e7420746f6b656e0000000000000000000000000000000000000000602082015250565b6000612847602c83611c65565b9150612852826127eb565b604082019050919050565b600060208201905081810360008301526128768161283a565b9050919050565b7f4552433732313a207472616e736665722066726f6d20696e636f72726563742060008201527f6f776e6572000000000000000000000000000000000000000000000000000000602082015250565b60006128d9602583611c65565b91506128e48261287d565b604082019050919050565b60006020820190508181036000830152612908816128cc565b9050919050565b7f4552433732313a207472616e7366657220746f20746865207a65726f2061646460008201527f7265737300000000000000000000000000000000000000000000000000000000602082015250565b600061296b602483611c65565b91506129768261290f565b604082019050919050565b6000602082019050818103600083015261299a8161295e565b9050919050565b7f4e487b7100000000000000000000000000000000000000000000000000000000600052601160045260246000fd5b60006129db82611d0c565b91506129e683611d0c565b92508282039050818111156129fe576129fd6129a1565b5b92915050565b6000612a0f82611d0c565b9150612a1a83611d0c565b9250828201905080821115612a3257612a316129a1565b5b92915050565b7f4552433732313a20617070726f766520746f2063616c6c657200000000000000600082015250565b6000612a6e601983611c65565b9150612a7982612a38565b602082019050919050565b60006020820190508181036000830152612a9d81612a61565b9050919050565b7f4552433732313a207472616e7366657220746f206e6f6e20455243373231526560008201527f63656976657220696d706c656d656e7465720000000000000000000000000000602082015250565b6000612b00603283611c65565b9150612b0b82612aa4565b604082019050919050565b60006020820190508181036000830152612b2f81612af3565b9050919050565b7f4552433732314d657461646174613a2055524920717565727920666f72206e6f60008201527f6e6578697374656e7420746f6b656e0000000000000000000000000000000000602082015250565b6000612b92602f83611c65565b9150612b9d82612b36565b604082019050919050565b60006020820190508181036000830152612bc181612b85565b9050919050565b7f4552433732313a206d696e7420746f20746865207a65726f2061646472657373600082015250565b6000612bfe602083611c65565b9150612c0982612bc8565b602082019050919050565b60006020820190508181036000830152612c2d81612bf1565b9050919050565b7f4552433732313a20746f6b656e20616c7265616479206d696e74656400000000600082015250565b6000612c6a601c83611c65565b9150612c7582612c34565b602082019050919050565b60006020820190508181036000830152612c9981612c5d565b9050919050565b7f45524337323155524953746f726167653a2055524920736574206f66206e6f6e60008201527f6578697374656e7420746f6b656e000000000000000000000000000000000000602082015250565b6000612cfc602e83611c65565b9150612d0782612ca0565b604082019050919050565b60006020820190508181036000830152612d2b81612cef565b9050919050565b60008190508160005260206000209050919050565b60006020601f8301049050919050565b600082821b905092915050565b600060088302612d947fffffffffffffffffffffffffffffffffffffffffffffffffffffffffffffffff82612d57565b612d9e8683612d57565b95508019841693508086168417925050509392505050565b6000819050919050565b6000612ddb612dd6612dd184611d0c565b612db6565b611d0c565b9050919050565b6000819050919050565b612df583612dc0565b612e09612e0182612de2565b848454612d64565b825550505050565b600090565b612e1e612e11565b612e29818484612dec565b505050565b5b81811015612e4d57612e42600082612e16565b600181019050612e2f565b5050565b601f821115612e9257612e6381612d32565b612e6c84612d47565b81016020851015612e7b578190505b612e8f612e8785612d47565b830182612e2e565b50505b505050565b600082821c905092915050565b6000612eb560001984600802612e97565b1980831691505092915050565b6000612ece8383612ea4565b9150826002028217905092915050565b612ee782611c5a565b67ffffffffffffffff811115612f0057612eff611f57565b5b612f0a825461225e565b612f15828285612e51565b600060209050601f831160018114612f485760008415612f36578287015190505b612f408582612ec2565b865550612fa8565b601f198416612f5686612d32565b60005b82811015612f7e57848901518255600182019150602085019450602081019050612f59565b86831015612f9b5784890151612f97601f891682612ea4565b8355505b6001600288020188555050505b505050505050565b600081519050919050565b600082825260208201905092915050565b6000612fd782612fb0565b612fe18185612fbb565b9350612ff1818560208601611c76565b612ffa81611ca0565b840191505092915050565b600060808201905061301a6000830187611da1565b6130276020830186611da1565b6130346040830185611eb7565b81810360608301526130468184612fcc565b905095945050505050565b60008151905061306081611bcb565b92915050565b60006020828403121561307c5761307b611b95565b5b600061308a84828501613051565b91505092915050565b600061309e82611d0c565b91507fffffffffffffffffffffffffffffffffffffffffffffffffffffffffffffffff82036130d0576130cf6129a1565b5b600182019050919050565b7f4e487b7100000000000000000000000000000000000000000000000000000000600052601260045260246000fd5b600061311582611d0c565b915061312083611d0c565b9250826131305761312f6130db565b5b828204905092915050565b600061314682611d0c565b915061315183611d0c565b925082613161576131606130db565b5b828206905092915050565b7f4e487b7100000000000000000000000000000000000000000000000000000000600052603260045260246000fdfea2646970667358221220dd2b725cd1192d90a7be4fd262187c5d58ab5005b216e45628808f4c429ebf1864736f6c63430008110033",
  "immutableReferences": {},
  "source": "//Contract based on [<https://docs.openzeppelin.com/contracts/3.x/erc721>](<https://docs.openzeppelin.com/contracts/3.x/erc721>)\n// SPDX-License-Identifier: MIT\npragma solidity ^0.8.7;\n\nimport \"../node_modules/@klaytn/contracts/token/ERC721/ERC721.sol\";\nimport \"../node_modules/@klaytn/contracts/utils/Counters.sol\";\nimport \"../node_modules/@klaytn/contracts/access/Ownable.sol\";\nimport \"../node_modules/@klaytn/contracts/token/ERC721/extensions/ERC721URIStorage.sol\";\n\ncontract MyNFTs is ERC721URIStorage, Ownable {\n  using Counters for Counters.Counter;\n  Counters.Counter private _tokenIds;\n\n  constructor() ERC721(\"MyNFTs\", \"MNFT\") {}\n\n  event minting(string tokenURI);\n\n  function mintNFT(string memory tokenURI) public onlyOwner returns (uint256) {\n    _tokenIds.increment();\n\n    uint256 newItemId = _tokenIds.current();\n    _mint(msg.sender, newItemId);\n    _setTokenURI(newItemId, tokenURI);\n\n    emit minting(tokenURI);\n\n    return newItemId;\n  }\n}\n",
  "sourcePath": "/home/kdm/hdd/project/BEB-07-final-DidYouEat/contracts/contracts/MyNFTs.sol",
  "compiler": {
    "name": "solc",
    "version": "0.8.17+commit.8df45f5f.Emscripten.clang"
  },
  "schemaVersion": "3.4.11",
  "updatedAt": "2023-01-29T10:06:58.590Z",
  "networkType": "ethereum",
  "devdoc": {
    "kind": "dev",
    "methods": {
      "approve(address,uint256)": {
        "details": "See {IERC721-approve}."
      },
      "balanceOf(address)": {
        "details": "See {IERC721-balanceOf}."
      },
      "getApproved(uint256)": {
        "details": "See {IERC721-getApproved}."
      },
      "isApprovedForAll(address,address)": {
        "details": "See {IERC721-isApprovedForAll}."
      },
      "name()": {
        "details": "See {IERC721Metadata-name}."
      },
      "owner()": {
        "details": "Returns the address of the current owner."
      },
      "ownerOf(uint256)": {
        "details": "See {IERC721-ownerOf}."
      },
      "renounceOwnership()": {
        "details": "Leaves the contract without owner. It will not be possible to call `onlyOwner` functions anymore. Can only be called by the current owner. NOTE: Renouncing ownership will leave the contract without an owner, thereby removing any functionality that is only available to the owner."
      },
      "safeTransferFrom(address,address,uint256)": {
        "details": "See {IERC721-safeTransferFrom}."
      },
      "safeTransferFrom(address,address,uint256,bytes)": {
        "details": "See {IERC721-safeTransferFrom}."
      },
      "setApprovalForAll(address,bool)": {
        "details": "See {IERC721-setApprovalForAll}."
      },
      "supportsInterface(bytes4)": {
        "details": "See {IERC165-supportsInterface}."
      },
      "symbol()": {
        "details": "See {IERC721Metadata-symbol}."
      },
      "tokenURI(uint256)": {
        "details": "See {IERC721Metadata-tokenURI}."
      },
      "transferFrom(address,address,uint256)": {
        "details": "See {IERC721-transferFrom}."
      },
      "transferOwnership(address)": {
        "details": "Transfers ownership of the contract to a new account (`newOwner`). Can only be called by the current owner."
      }
    },
    "version": 1
  },
  "userdoc": {
    "kind": "user",
    "methods": {},
    "version": 1
  }
}