{
  "contractName": "Poap",
  "abi": [
    {
      "inputs": [],
      "stateMutability": "nonpayable",
      "type": "constructor"
    },
    {
      "anonymous": false,
      "inputs": [
        {
          "indexed": true,
          "internalType": "address",
          "name": "owner",
          "type": "address"
        },
        {
          "indexed": true,
          "internalType": "address",
          "name": "approved",
          "type": "address"
        },
        {
          "indexed": true,
          "internalType": "uint256",
          "name": "tokenId",
          "type": "uint256"
        }
      ],
      "name": "Approval",
      "type": "event"
    },
    {
      "anonymous": false,
      "inputs": [
        {
          "indexed": true,
          "internalType": "address",
          "name": "owner",
          "type": "address"
        },
        {
          "indexed": true,
          "internalType": "address",
          "name": "operator",
          "type": "address"
        },
        {
          "indexed": false,
          "internalType": "bool",
          "name": "approved",
          "type": "bool"
        }
      ],
      "name": "ApprovalForAll",
      "type": "event"
    },
    {
      "anonymous": false,
      "inputs": [
        {
          "indexed": false,
          "internalType": "string",
          "name": "collectionName",
          "type": "string"
        },
        {
          "indexed": false,
          "internalType": "string",
          "name": "metaURI",
          "type": "string"
        }
      ],
      "name": "CreateCollection",
      "type": "event"
    },
    {
      "anonymous": false,
      "inputs": [
        {
          "indexed": false,
          "internalType": "uint256",
          "name": "tokenId",
          "type": "uint256"
        }
      ],
      "name": "Locked",
      "type": "event"
    },
    {
      "anonymous": false,
      "inputs": [
        {
          "indexed": false,
          "internalType": "uint256",
          "name": "tokenId",
          "type": "uint256"
        },
        {
          "indexed": false,
          "internalType": "string",
          "name": "tokenURI",
          "type": "string"
        },
        {
          "indexed": false,
          "internalType": "uint256",
          "name": "createdAt",
          "type": "uint256"
        }
      ],
      "name": "MintToken",
      "type": "event"
    },
    {
      "anonymous": false,
      "inputs": [
        {
          "indexed": true,
          "internalType": "address",
          "name": "previousOwner",
          "type": "address"
        },
        {
          "indexed": true,
          "internalType": "address",
          "name": "newOwner",
          "type": "address"
        }
      ],
      "name": "OwnershipTransferred",
      "type": "event"
    },
    {
      "anonymous": false,
      "inputs": [
        {
          "indexed": false,
          "internalType": "address",
          "name": "account",
          "type": "address"
        }
      ],
      "name": "Paused",
      "type": "event"
    },
    {
      "anonymous": false,
      "inputs": [
        {
          "indexed": true,
          "internalType": "address",
          "name": "from",
          "type": "address"
        },
        {
          "indexed": true,
          "internalType": "address",
          "name": "to",
          "type": "address"
        },
        {
          "indexed": true,
          "internalType": "uint256",
          "name": "tokenId",
          "type": "uint256"
        }
      ],
      "name": "Transfer",
      "type": "event"
    },
    {
      "anonymous": false,
      "inputs": [
        {
          "indexed": false,
          "internalType": "uint256",
          "name": "tokenId",
          "type": "uint256"
        }
      ],
      "name": "Unlocked",
      "type": "event"
    },
    {
      "anonymous": false,
      "inputs": [
        {
          "indexed": false,
          "internalType": "address",
          "name": "account",
          "type": "address"
        }
      ],
      "name": "Unpaused",
      "type": "event"
    },
    {
      "anonymous": false,
      "inputs": [
        {
          "indexed": false,
          "internalType": "string",
          "name": "collectionName",
          "type": "string"
        },
        {
          "indexed": false,
          "internalType": "string",
          "name": "newMetaURI",
          "type": "string"
        }
      ],
      "name": "UpdateCollection",
      "type": "event"
    },
    {
      "inputs": [
        {
          "internalType": "address",
          "name": "to",
          "type": "address"
        },
        {
          "internalType": "uint256",
          "name": "tokenId",
          "type": "uint256"
        }
      ],
      "name": "approve",
      "outputs": [],
      "stateMutability": "nonpayable",
      "type": "function"
    },
    {
      "inputs": [
        {
          "internalType": "address",
          "name": "owner",
          "type": "address"
        }
      ],
      "name": "balanceOf",
      "outputs": [
        {
          "internalType": "uint256",
          "name": "",
          "type": "uint256"
        }
      ],
      "stateMutability": "view",
      "type": "function",
      "constant": true
    },
    {
      "inputs": [
        {
          "internalType": "uint256",
          "name": "tokenId",
          "type": "uint256"
        }
      ],
      "name": "getApproved",
      "outputs": [
        {
          "internalType": "address",
          "name": "",
          "type": "address"
        }
      ],
      "stateMutability": "view",
      "type": "function",
      "constant": true
    },
    {
      "inputs": [
        {
          "internalType": "address",
          "name": "owner",
          "type": "address"
        },
        {
          "internalType": "address",
          "name": "operator",
          "type": "address"
        }
      ],
      "name": "isApprovedForAll",
      "outputs": [
        {
          "internalType": "bool",
          "name": "",
          "type": "bool"
        }
      ],
      "stateMutability": "view",
      "type": "function",
      "constant": true
    },
    {
      "inputs": [],
      "name": "name",
      "outputs": [
        {
          "internalType": "string",
          "name": "",
          "type": "string"
        }
      ],
      "stateMutability": "view",
      "type": "function",
      "constant": true
    },
    {
      "inputs": [],
      "name": "owner",
      "outputs": [
        {
          "internalType": "address",
          "name": "",
          "type": "address"
        }
      ],
      "stateMutability": "view",
      "type": "function",
      "constant": true
    },
    {
      "inputs": [
        {
          "internalType": "uint256",
          "name": "tokenId",
          "type": "uint256"
        }
      ],
      "name": "ownerOf",
      "outputs": [
        {
          "internalType": "address",
          "name": "",
          "type": "address"
        }
      ],
      "stateMutability": "view",
      "type": "function",
      "constant": true
    },
    {
      "inputs": [],
      "name": "pause",
      "outputs": [],
      "stateMutability": "nonpayable",
      "type": "function"
    },
    {
      "inputs": [],
      "name": "paused",
      "outputs": [
        {
          "internalType": "bool",
          "name": "",
          "type": "bool"
        }
      ],
      "stateMutability": "view",
      "type": "function",
      "constant": true
    },
    {
      "inputs": [],
      "name": "renounceOwnership",
      "outputs": [],
      "stateMutability": "nonpayable",
      "type": "function"
    },
    {
      "inputs": [
        {
          "internalType": "address",
          "name": "operator",
          "type": "address"
        },
        {
          "internalType": "bool",
          "name": "approved",
          "type": "bool"
        }
      ],
      "name": "setApprovalForAll",
      "outputs": [],
      "stateMutability": "nonpayable",
      "type": "function"
    },
    {
      "inputs": [
        {
          "internalType": "bytes4",
          "name": "interfaceId",
          "type": "bytes4"
        }
      ],
      "name": "supportsInterface",
      "outputs": [
        {
          "internalType": "bool",
          "name": "",
          "type": "bool"
        }
      ],
      "stateMutability": "view",
      "type": "function",
      "constant": true
    },
    {
      "inputs": [],
      "name": "symbol",
      "outputs": [
        {
          "internalType": "string",
          "name": "",
          "type": "string"
        }
      ],
      "stateMutability": "view",
      "type": "function",
      "constant": true
    },
    {
      "inputs": [
        {
          "internalType": "uint256",
          "name": "tokenId",
          "type": "uint256"
        }
      ],
      "name": "tokenURI",
      "outputs": [
        {
          "internalType": "string",
          "name": "",
          "type": "string"
        }
      ],
      "stateMutability": "view",
      "type": "function",
      "constant": true
    },
    {
      "inputs": [],
      "name": "unpause",
      "outputs": [],
      "stateMutability": "nonpayable",
      "type": "function"
    },
    {
      "inputs": [
        {
          "internalType": "address",
          "name": "newOwner",
          "type": "address"
        }
      ],
      "name": "transferOwnership",
      "outputs": [],
      "stateMutability": "nonpayable",
      "type": "function"
    },
    {
      "inputs": [
        {
          "internalType": "string",
          "name": "collectionName",
          "type": "string"
        },
        {
          "internalType": "string",
          "name": "owner",
          "type": "string"
        },
        {
          "internalType": "string",
          "name": "metaURI",
          "type": "string"
        }
      ],
      "name": "createCollection",
      "outputs": [],
      "stateMutability": "nonpayable",
      "type": "function"
    },
    {
      "inputs": [
        {
          "internalType": "string",
          "name": "collectionName",
          "type": "string"
        },
        {
          "internalType": "string",
          "name": "newMetaURI",
          "type": "string"
        }
      ],
      "name": "updateCollection",
      "outputs": [],
      "stateMutability": "nonpayable",
      "type": "function"
    },
    {
      "inputs": [
        {
          "internalType": "address",
          "name": "recipient",
          "type": "address"
        },
        {
          "internalType": "string",
          "name": "collectionName",
          "type": "string"
        }
      ],
      "name": "mintToken",
      "outputs": [
        {
          "internalType": "uint256",
          "name": "",
          "type": "uint256"
        }
      ],
      "stateMutability": "nonpayable",
      "type": "function"
    },
    {
      "inputs": [
        {
          "internalType": "uint256",
          "name": "tokenId",
          "type": "uint256"
        }
      ],
      "name": "unlock",
      "outputs": [],
      "stateMutability": "nonpayable",
      "type": "function"
    },
    {
      "inputs": [
        {
          "internalType": "uint256",
          "name": "tokenId",
          "type": "uint256"
        }
      ],
      "name": "lock",
      "outputs": [],
      "stateMutability": "nonpayable",
      "type": "function"
    },
    {
      "inputs": [
        {
          "internalType": "uint256",
          "name": "tokenId",
          "type": "uint256"
        }
      ],
      "name": "tokenCollection",
      "outputs": [
        {
          "internalType": "string",
          "name": "",
          "type": "string"
        }
      ],
      "stateMutability": "view",
      "type": "function",
      "constant": true
    },
    {
      "inputs": [
        {
          "internalType": "string",
          "name": "collectionName",
          "type": "string"
        }
      ],
      "name": "collectionMinted",
      "outputs": [
        {
          "internalType": "uint256",
          "name": "",
          "type": "uint256"
        }
      ],
      "stateMutability": "view",
      "type": "function",
      "constant": true
    },
    {
      "inputs": [
        {
          "internalType": "string",
          "name": "collectionName",
          "type": "string"
        }
      ],
      "name": "collectionOwner",
      "outputs": [
        {
          "internalType": "string",
          "name": "",
          "type": "string"
        }
      ],
      "stateMutability": "view",
      "type": "function",
      "constant": true
    },
    {
      "inputs": [
        {
          "internalType": "uint256",
          "name": "tokenId",
          "type": "uint256"
        }
      ],
      "name": "tokenCreatedAt",
      "outputs": [
        {
          "internalType": "uint256",
          "name": "",
          "type": "uint256"
        }
      ],
      "stateMutability": "view",
      "type": "function",
      "constant": true
    },
    {
      "inputs": [
        {
          "internalType": "uint256",
          "name": "tokenId",
          "type": "uint256"
        }
      ],
      "name": "locked",
      "outputs": [
        {
          "internalType": "bool",
          "name": "",
          "type": "bool"
        }
      ],
      "stateMutability": "view",
      "type": "function",
      "constant": true
    },
    {
      "inputs": [
        {
          "internalType": "address",
          "name": "from",
          "type": "address"
        },
        {
          "internalType": "address",
          "name": "to",
          "type": "address"
        },
        {
          "internalType": "uint256",
          "name": "tokenId",
          "type": "uint256"
        }
      ],
      "name": "safeTransferFrom",
      "outputs": [],
      "stateMutability": "nonpayable",
      "type": "function"
    },
    {
      "inputs": [
        {
          "internalType": "address",
          "name": "from",
          "type": "address"
        },
        {
          "internalType": "address",
          "name": "to",
          "type": "address"
        },
        {
          "internalType": "uint256",
          "name": "tokenId",
          "type": "uint256"
        },
        {
          "internalType": "bytes",
          "name": "data",
          "type": "bytes"
        }
      ],
      "name": "safeTransferFrom",
      "outputs": [],
      "stateMutability": "nonpayable",
      "type": "function"
    },
    {
      "inputs": [
        {
          "internalType": "address",
          "name": "from",
          "type": "address"
        },
        {
          "internalType": "address",
          "name": "to",
          "type": "address"
        },
        {
          "internalType": "uint256",
          "name": "tokenId",
          "type": "uint256"
        }
      ],
      "name": "transferFrom",
      "outputs": [],
      "stateMutability": "nonpayable",
      "type": "function"
    }
  ],
  "bytecode": "0x60806040526000600960006101000a81548160ff0219169083151502179055503480156200002c57600080fd5b506040518060400160405280600481526020017f506f6170000000000000000000000000000000000000000000000000000000008152506040518060400160405280600381526020017f44594500000000000000000000000000000000000000000000000000000000008152508160009081620000aa91906200042d565b508060019081620000bc91906200042d565b505050620000df620000d3620000e560201b60201c565b620000ed60201b60201c565b62000514565b600033905090565b6000600760009054906101000a900473ffffffffffffffffffffffffffffffffffffffff16905081600760006101000a81548173ffffffffffffffffffffffffffffffffffffffff021916908373ffffffffffffffffffffffffffffffffffffffff1602179055508173ffffffffffffffffffffffffffffffffffffffff168173ffffffffffffffffffffffffffffffffffffffff167f8be0079c531659141344cd1fd0a4f28419497f9722a3daafe3b4186f6b6457e060405160405180910390a35050565b600081519050919050565b7f4e487b7100000000000000000000000000000000000000000000000000000000600052604160045260246000fd5b7f4e487b7100000000000000000000000000000000000000000000000000000000600052602260045260246000fd5b600060028204905060018216806200023557607f821691505b6020821081036200024b576200024a620001ed565b5b50919050565b60008190508160005260206000209050919050565b60006020601f8301049050919050565b600082821b905092915050565b600060088302620002b57fffffffffffffffffffffffffffffffffffffffffffffffffffffffffffffffff8262000276565b620002c1868362000276565b95508019841693508086168417925050509392505050565b6000819050919050565b6000819050919050565b60006200030e620003086200030284620002d9565b620002e3565b620002d9565b9050919050565b6000819050919050565b6200032a83620002ed565b62000342620003398262000315565b84845462000283565b825550505050565b600090565b620003596200034a565b620003668184846200031f565b505050565b5b818110156200038e57620003826000826200034f565b6001810190506200036c565b5050565b601f821115620003dd57620003a78162000251565b620003b28462000266565b81016020851015620003c2578190505b620003da620003d18562000266565b8301826200036b565b50505b505050565b600082821c905092915050565b60006200040260001984600802620003e2565b1980831691505092915050565b60006200041d8383620003ef565b9150826002028217905092915050565b6200043882620001b3565b67ffffffffffffffff811115620004545762000453620001be565b5b6200046082546200021c565b6200046d82828562000392565b600060209050601f831160018114620004a5576000841562000490578287015190505b6200049c85826200040f565b8655506200050c565b601f198416620004b58662000251565b60005b82811015620004df57848901518255600182019150602085019450602081019050620004b8565b86831015620004ff5784890151620004fb601f891682620003ef565b8355505b6001600288020188555050505b505050505050565b6145ec80620005246000396000f3fe608060405234801561001057600080fd5b50600436106101cf5760003560e01c8063715018a611610104578063b45a3c0e116100a2578063e985e9c511610071578063e985e9c51461053e578063ece86c211461056e578063f2fde38b1461058a578063f48e252f146105a6576101cf565b8063b45a3c0e146104a6578063b88d4fde146104d6578063c87b56dd146104f2578063dd46706414610522576101cf565b806395d89b41116100de57806395d89b411461040c5780639ace23ed1461042a5780639b7bcf971461045a578063a22cb4651461048a576101cf565b8063715018a6146103da5780638456cb59146103e45780638da5cb5b146103ee576101cf565b80633d02d0c9116101715780635c975abb1161014b5780635c975abb146103405780636198e3391461035e5780636352211e1461037a57806370a08231146103aa576101cf565b80633d02d0c9146102ea5780633f4ba83a1461031a57806342842e0e14610324576101cf565b8063095ea7b3116101ad578063095ea7b314610252578063202e1d161461026e57806323b872dd1461029e5780632dd883e8146102ba576101cf565b806301ffc9a7146101d457806306fdde0314610204578063081812fc14610222575b600080fd5b6101ee60048036038101906101e99190612cc7565b6105c2565b6040516101fb9190612d0f565b60405180910390f35b61020c6106a4565b6040516102199190612dba565b60405180910390f35b61023c60048036038101906102379190612e12565b610736565b6040516102499190612e80565b60405180910390f35b61026c60048036038101906102679190612ec7565b6107bb565b005b6102886004803603810190610283919061303c565b6108d2565b6040516102959190613094565b60405180910390f35b6102b860048036038101906102b391906130af565b610944565b005b6102d460048036038101906102cf9190612e12565b610983565b6040516102e19190612dba565b60405180910390f35b61030460048036038101906102ff9190613102565b610a72565b6040516103119190613094565b60405180910390f35b610322610cfc565b005b61033e600480360381019061033991906130af565b610de5565b005b610348610e24565b6040516103559190612d0f565b60405180910390f35b61037860048036038101906103739190612e12565b610e3b565b005b610394600480360381019061038f9190612e12565b610f27565b6040516103a19190612e80565b60405180910390f35b6103c460048036038101906103bf919061315e565b610fd8565b6040516103d19190613094565b60405180910390f35b6103e261108f565b005b6103ec611117565b005b6103f6611201565b6040516104039190612e80565b60405180910390f35b61041461122b565b6040516104219190612dba565b60405180910390f35b610444600480360381019061043f9190612e12565b6112bd565b6040516104519190613094565b60405180910390f35b610474600480360381019061046f919061303c565b611324565b6040516104819190612dba565b60405180910390f35b6104a4600480360381019061049f91906131b7565b61141e565b005b6104c060048036038101906104bb9190612e12565b611434565b6040516104cd9190612d0f565b60405180910390f35b6104f060048036038101906104eb9190613298565b611446565b005b61050c60048036038101906105079190612e12565b611487565b6040516105199190612dba565b60405180910390f35b61053c60048036038101906105379190612e12565b6115d8565b005b6105586004803603810190610553919061331b565b6116c4565b6040516105659190612d0f565b60405180910390f35b6105886004803603810190610583919061335b565b611758565b005b6105a4600480360381019061059f919061315e565b6118f1565b005b6105c060048036038101906105bb9190613402565b6119e8565b005b60007f80ac58cd000000000000000000000000000000000000000000000000000000007bffffffffffffffffffffffffffffffffffffffffffffffffffffffff1916827bffffffffffffffffffffffffffffffffffffffffffffffffffffffff1916148061068d57507f5b5e139f000000000000000000000000000000000000000000000000000000007bffffffffffffffffffffffffffffffffffffffffffffffffffffffff1916827bffffffffffffffffffffffffffffffffffffffffffffffffffffffff1916145b8061069d575061069c82611b31565b5b9050919050565b6060600080546106b3906134a9565b80601f01602080910402602001604051908101604052809291908181526020018280546106df906134a9565b801561072c5780601f106107015761010080835404028352916020019161072c565b820191906000526020600020905b81548152906001019060200180831161070f57829003601f168201915b5050505050905090565b600061074182611b9b565b610780576040517f08c379a00000000000000000000000000000000000000000000000000000000081526004016107779061354c565b60405180910390fd5b6004600083815260200190815260200160002060009054906101000a900473ffffffffffffffffffffffffffffffffffffffff169050919050565b60006107c682610f27565b90508073ffffffffffffffffffffffffffffffffffffffff168373ffffffffffffffffffffffffffffffffffffffff1603610836576040517f08c379a000000000000000000000000000000000000000000000000000000000815260040161082d906135de565b60405180910390fd5b8073ffffffffffffffffffffffffffffffffffffffff16610855611c07565b73ffffffffffffffffffffffffffffffffffffffff16148061088457506108838161087e611c07565b6116c4565b5b6108c3576040517f08c379a00000000000000000000000000000000000000000000000000000000081526004016108ba90613670565b60405180910390fd5b6108cd8383611c0f565b505050565b6000816108de81611cc8565b61091d576040517f08c379a0000000000000000000000000000000000000000000000000000000008152600401610914906136dc565b60405180910390fd5b600e8360405161092d9190613738565b908152602001604051809103902054915050919050565b8061094e81611434565b1561095857600080fd5b600960009054906101000a900460ff161561097257600080fd5b61097d848484611d91565b50505050565b60608161098f81611b9b565b6109ce576040517f08c379a00000000000000000000000000000000000000000000000000000000081526004016109c59061379b565b60405180910390fd5b600b600084815260200190815260200160002080546109ec906134a9565b80601f0160208091040260200160405190810160405280929190818152602001828054610a18906134a9565b8015610a655780601f10610a3a57610100808354040283529160200191610a65565b820191906000526020600020905b815481529060010190602001808311610a4857829003601f168201915b5050505050915050919050565b6000610a7c611c07565b73ffffffffffffffffffffffffffffffffffffffff16610a9a611201565b73ffffffffffffffffffffffffffffffffffffffff1614610af0576040517f08c379a0000000000000000000000000000000000000000000000000000000008152600401610ae790613807565b60405180910390fd5b600960009054906101000a900460ff1615610b0a57600080fd5b81610b1481611cc8565b610b53576040517f08c379a0000000000000000000000000000000000000000000000000000000008152600401610b4a906136dc565b60405180910390fd5b610b5d600a611df1565b6000610b69600a611e07565b905083600b60008381526020019081526020016000209081610b8b91906139d3565b506001600e85604051610b9e9190613738565b90815260200160405180910390206000828254610bbb9190613ad4565b925050819055506000600f85604051610bd49190613738565b90815260200160405180910390208054610bed906134a9565b80601f0160208091040260200160405190810160405280929190818152602001828054610c19906134a9565b8015610c665780601f10610c3b57610100808354040283529160200191610c66565b820191906000526020600020905b815481529060010190602001808311610c4957829003601f168201915b50505050509050610c778683611e15565b610c818282611fee565b610c8a8261205b565b42600c6000848152602001908152602001600020819055507f62c7d0ab3d4a5ce83ab60c8c32abd5fd0bdb5e26e780ee6b932699755639afab8282600c600086815260200190815260200160002054604051610ce893929190613b08565b60405180910390a181935050505092915050565b610d04611c07565b73ffffffffffffffffffffffffffffffffffffffff16610d22611201565b73ffffffffffffffffffffffffffffffffffffffff1614610d78576040517f08c379a0000000000000000000000000000000000000000000000000000000008152600401610d6f90613807565b60405180910390fd5b600960009054906101000a900460ff16610d9157600080fd5b6000600960006101000a81548160ff0219169083151502179055507f5db9ee0a495bf2e6ff9c91a7834c1ba4fdd244a5e8aa4e537bd38aeae4b073aa33604051610ddb9190612e80565b60405180910390a1565b80610def81611434565b15610df957600080fd5b600960009054906101000a900460ff1615610e1357600080fd5b610e1e8484846120c1565b50505050565b6000600960009054906101000a900460ff16905090565b610e43611c07565b73ffffffffffffffffffffffffffffffffffffffff16610e61611201565b73ffffffffffffffffffffffffffffffffffffffff1614610eb7576040517f08c379a0000000000000000000000000000000000000000000000000000000008152600401610eae90613807565b60405180910390fd5b80610ec181611b9b565b610f00576040517f08c379a0000000000000000000000000000000000000000000000000000000008152600401610ef79061379b565b60405180910390fd5b600960009054906101000a900460ff1615610f1a57600080fd5b610f23826120e1565b5050565b6000806002600084815260200190815260200160002060009054906101000a900473ffffffffffffffffffffffffffffffffffffffff169050600073ffffffffffffffffffffffffffffffffffffffff168173ffffffffffffffffffffffffffffffffffffffff1603610fcf576040517f08c379a0000000000000000000000000000000000000000000000000000000008152600401610fc690613bb8565b60405180910390fd5b80915050919050565b60008073ffffffffffffffffffffffffffffffffffffffff168273ffffffffffffffffffffffffffffffffffffffff1603611048576040517f08c379a000000000000000000000000000000000000000000000000000000000815260040161103f90613c4a565b60405180910390fd5b600360008373ffffffffffffffffffffffffffffffffffffffff1673ffffffffffffffffffffffffffffffffffffffff168152602001908152602001600020549050919050565b611097611c07565b73ffffffffffffffffffffffffffffffffffffffff166110b5611201565b73ffffffffffffffffffffffffffffffffffffffff161461110b576040517f08c379a000000000000000000000000000000000000000000000000000000000815260040161110290613807565b60405180910390fd5b6111156000612147565b565b61111f611c07565b73ffffffffffffffffffffffffffffffffffffffff1661113d611201565b73ffffffffffffffffffffffffffffffffffffffff1614611193576040517f08c379a000000000000000000000000000000000000000000000000000000000815260040161118a90613807565b60405180910390fd5b600960009054906101000a900460ff16156111ad57600080fd5b6001600960006101000a81548160ff0219169083151502179055507f62e78cea01bee320cd4e420270b5ea74000d11b0c9f74754ebdbfc544b05a258336040516111f79190612e80565b60405180910390a1565b6000600760009054906101000a900473ffffffffffffffffffffffffffffffffffffffff16905090565b60606001805461123a906134a9565b80601f0160208091040260200160405190810160405280929190818152602001828054611266906134a9565b80156112b35780601f10611288576101008083540402835291602001916112b3565b820191906000526020600020905b81548152906001019060200180831161129657829003601f168201915b5050505050905090565b6000816112c981611b9b565b611308576040517f08c379a00000000000000000000000000000000000000000000000000000000081526004016112ff9061379b565b60405180910390fd5b600c600084815260200190815260200160002054915050919050565b60608161133081611cc8565b61136f576040517f08c379a0000000000000000000000000000000000000000000000000000000008152600401611366906136dc565b60405180910390fd5b600d8360405161137f9190613738565b90815260200160405180910390208054611398906134a9565b80601f01602080910402602001604051908101604052809291908181526020018280546113c4906134a9565b80156114115780601f106113e657610100808354040283529160200191611411565b820191906000526020600020905b8154815290600101906020018083116113f457829003601f168201915b5050505050915050919050565b611430611429611c07565b838361220d565b5050565b600061143f82612379565b9050919050565b8161145081611434565b1561145a57600080fd5b600960009054906101000a900460ff161561147457600080fd5b611480858585856123a3565b5050505050565b606061149282611b9b565b6114d1576040517f08c379a00000000000000000000000000000000000000000000000000000000081526004016114c890613cdc565b60405180910390fd5b60006006600084815260200190815260200160002080546114f1906134a9565b80601f016020809104026020016040519081016040528092919081815260200182805461151d906134a9565b801561156a5780601f1061153f5761010080835404028352916020019161156a565b820191906000526020600020905b81548152906001019060200180831161154d57829003601f168201915b50505050509050600061157b612405565b905060008151036115905781925050506115d3565b6000825111156115c55780826040516020016115ad929190613cfc565b604051602081830303815290604052925050506115d3565b6115ce8461241c565b925050505b919050565b6115e0611c07565b73ffffffffffffffffffffffffffffffffffffffff166115fe611201565b73ffffffffffffffffffffffffffffffffffffffff1614611654576040517f08c379a000000000000000000000000000000000000000000000000000000000815260040161164b90613807565b60405180910390fd5b8061165e81611b9b565b61169d576040517f08c379a00000000000000000000000000000000000000000000000000000000081526004016116949061379b565b60405180910390fd5b600960009054906101000a900460ff16156116b757600080fd5b6116c08261205b565b5050565b6000600560008473ffffffffffffffffffffffffffffffffffffffff1673ffffffffffffffffffffffffffffffffffffffff16815260200190815260200160002060008373ffffffffffffffffffffffffffffffffffffffff1673ffffffffffffffffffffffffffffffffffffffff16815260200190815260200160002060009054906101000a900460ff16905092915050565b611760611c07565b73ffffffffffffffffffffffffffffffffffffffff1661177e611201565b73ffffffffffffffffffffffffffffffffffffffff16146117d4576040517f08c379a00000000000000000000000000000000000000000000000000000000081526004016117cb90613807565b60405180910390fd5b600960009054906101000a900460ff16156117ee57600080fd5b6117f783611cc8565b15611837576040517f08c379a000000000000000000000000000000000000000000000000000000000815260040161182e90613d6c565b60405180910390fd5b81600d846040516118489190613738565b9081526020016040518091039020908161186291906139d3565b506000600e846040516118759190613738565b90815260200160405180910390208190555080600f846040516118989190613738565b908152602001604051809103902090816118b291906139d3565b507f22064cb5620abd120c2e3ce072e223da3c503d87ebe06c3310915de76fc6453383826040516118e4929190613d8c565b60405180910390a1505050565b6118f9611c07565b73ffffffffffffffffffffffffffffffffffffffff16611917611201565b73ffffffffffffffffffffffffffffffffffffffff161461196d576040517f08c379a000000000000000000000000000000000000000000000000000000000815260040161196490613807565b60405180910390fd5b600073ffffffffffffffffffffffffffffffffffffffff168173ffffffffffffffffffffffffffffffffffffffff16036119dc576040517f08c379a00000000000000000000000000000000000000000000000000000000081526004016119d390613e35565b60405180910390fd5b6119e581612147565b50565b6119f0611c07565b73ffffffffffffffffffffffffffffffffffffffff16611a0e611201565b73ffffffffffffffffffffffffffffffffffffffff1614611a64576040517f08c379a0000000000000000000000000000000000000000000000000000000008152600401611a5b90613807565b60405180910390fd5b600960009054906101000a900460ff1615611a7e57600080fd5b81611a8881611cc8565b611ac7576040517f08c379a0000000000000000000000000000000000000000000000000000000008152600401611abe906136dc565b60405180910390fd5b81600f84604051611ad89190613738565b90815260200160405180910390209081611af291906139d3565b507f8e2e12b489cf2f3cfd73c935d21e0558653cab40a0fbdc162e6bb5e8e2748c618383604051611b24929190613d8c565b60405180910390a1505050565b60007f01ffc9a7000000000000000000000000000000000000000000000000000000007bffffffffffffffffffffffffffffffffffffffffffffffffffffffff1916827bffffffffffffffffffffffffffffffffffffffffffffffffffffffff1916149050919050565b60008073ffffffffffffffffffffffffffffffffffffffff166002600084815260200190815260200160002060009054906101000a900473ffffffffffffffffffffffffffffffffffffffff1673ffffffffffffffffffffffffffffffffffffffff1614159050919050565b600033905090565b816004600083815260200190815260200160002060006101000a81548173ffffffffffffffffffffffffffffffffffffffff021916908373ffffffffffffffffffffffffffffffffffffffff160217905550808273ffffffffffffffffffffffffffffffffffffffff16611c8283610f27565b73ffffffffffffffffffffffffffffffffffffffff167f8c5be1e5ebec7d5bd14f71427d1e84f3dd0314c0f7b2291e5b200ac8c7c3b92560405160405180910390a45050565b6000611d89600d83604051611cdd9190613738565b90815260200160405180910390208054611cf6906134a9565b80601f0160208091040260200160405190810160405280929190818152602001828054611d22906134a9565b8015611d6f5780601f10611d4457610100808354040283529160200191611d6f565b820191906000526020600020905b815481529060010190602001808311611d5257829003601f168201915b5050505050604051806020016040528060008152506124c3565b159050919050565b611da2611d9c611c07565b826125a7565b611de1576040517f08c379a0000000000000000000000000000000000000000000000000000000008152600401611dd890613ec7565b60405180910390fd5b611dec838383612685565b505050565b6001816000016000828254019250508190555050565b600081600001549050919050565b600073ffffffffffffffffffffffffffffffffffffffff168273ffffffffffffffffffffffffffffffffffffffff1603611e84576040517f08c379a0000000000000000000000000000000000000000000000000000000008152600401611e7b90613f33565b60405180910390fd5b611e8d81611b9b565b15611ecd576040517f08c379a0000000000000000000000000000000000000000000000000000000008152600401611ec490613f9f565b60405180910390fd5b611ed9600083836128eb565b6001600360008473ffffffffffffffffffffffffffffffffffffffff1673ffffffffffffffffffffffffffffffffffffffff1681526020019081526020016000206000828254611f299190613ad4565b92505081905550816002600083815260200190815260200160002060006101000a81548173ffffffffffffffffffffffffffffffffffffffff021916908373ffffffffffffffffffffffffffffffffffffffff160217905550808273ffffffffffffffffffffffffffffffffffffffff16600073ffffffffffffffffffffffffffffffffffffffff167fddf252ad1be2c89b69c2b068fc378daa952ba7f163c4a11628f55a4df523b3ef60405160405180910390a4611fea600083836128f0565b5050565b611ff782611b9b565b612036576040517f08c379a000000000000000000000000000000000000000000000000000000000815260040161202d90614031565b60405180910390fd5b8060066000848152602001908152602001600020908161205691906139d3565b505050565b60016008600083815260200190815260200160002060006101000a81548160ff0219169083151502179055507f032bc66be43dbccb7487781d168eb7bda224628a3b2c3388bdf69b532a3a1611816040516120b69190613094565b60405180910390a150565b6120dc83838360405180602001604052806000815250611446565b505050565b60006008600083815260200190815260200160002060006101000a81548160ff0219169083151502179055507ff27b6ce5b2f5e68ddb2fd95a8a909d4ecf1daaac270935fff052feacb24f18428160405161213c9190613094565b60405180910390a150565b6000600760009054906101000a900473ffffffffffffffffffffffffffffffffffffffff16905081600760006101000a81548173ffffffffffffffffffffffffffffffffffffffff021916908373ffffffffffffffffffffffffffffffffffffffff1602179055508173ffffffffffffffffffffffffffffffffffffffff168173ffffffffffffffffffffffffffffffffffffffff167f8be0079c531659141344cd1fd0a4f28419497f9722a3daafe3b4186f6b6457e060405160405180910390a35050565b8173ffffffffffffffffffffffffffffffffffffffff168373ffffffffffffffffffffffffffffffffffffffff160361227b576040517f08c379a00000000000000000000000000000000000000000000000000000000081526004016122729061409d565b60405180910390fd5b80600560008573ffffffffffffffffffffffffffffffffffffffff1673ffffffffffffffffffffffffffffffffffffffff16815260200190815260200160002060008473ffffffffffffffffffffffffffffffffffffffff1673ffffffffffffffffffffffffffffffffffffffff16815260200190815260200160002060006101000a81548160ff0219169083151502179055508173ffffffffffffffffffffffffffffffffffffffff168373ffffffffffffffffffffffffffffffffffffffff167f17307eab39ab6107e8899845ad3d59bd9653f200f220920489ca2b5937696c318360405161236c9190612d0f565b60405180910390a3505050565b60006008600083815260200190815260200160002060009054906101000a900460ff169050919050565b6123b46123ae611c07565b836125a7565b6123f3576040517f08c379a00000000000000000000000000000000000000000000000000000000081526004016123ea90613ec7565b60405180910390fd5b6123ff848484846128f5565b50505050565b606060405180602001604052806000815250905090565b606061242782611b9b565b612466576040517f08c379a000000000000000000000000000000000000000000000000000000000815260040161245d9061412f565b60405180910390fd5b6000612470612405565b9050600081511161249057604051806020016040528060008152506124bb565b8061249a84612951565b6040516020016124ab929190613cfc565b6040516020818303038152906040525b915050919050565b6000808390506000839050600082519050815181146124e857600093505050506125a1565b60005b81811015612598578281815181106125065761250561414f565b5b602001015160f81c60f81b7effffffffffffffffffffffffffffffffffffffffffffffffffffffffffffff19168482815181106125465761254561414f565b5b602001015160f81c60f81b7effffffffffffffffffffffffffffffffffffffffffffffffffffffffffffff1916146125855760009450505050506125a1565b80806125909061417e565b9150506124eb565b50600193505050505b92915050565b60006125b282611b9b565b6125f1576040517f08c379a00000000000000000000000000000000000000000000000000000000081526004016125e890614238565b60405180910390fd5b60006125fc83610f27565b90508073ffffffffffffffffffffffffffffffffffffffff168473ffffffffffffffffffffffffffffffffffffffff16148061263e575061263d81856116c4565b5b8061267c57508373ffffffffffffffffffffffffffffffffffffffff1661266484610736565b73ffffffffffffffffffffffffffffffffffffffff16145b91505092915050565b8273ffffffffffffffffffffffffffffffffffffffff166126a582610f27565b73ffffffffffffffffffffffffffffffffffffffff16146126fb576040517f08c379a00000000000000000000000000000000000000000000000000000000081526004016126f2906142ca565b60405180910390fd5b600073ffffffffffffffffffffffffffffffffffffffff168273ffffffffffffffffffffffffffffffffffffffff160361276a576040517f08c379a00000000000000000000000000000000000000000000000000000000081526004016127619061435c565b60405180910390fd5b6127758383836128eb565b612780600082611c0f565b6001600360008573ffffffffffffffffffffffffffffffffffffffff1673ffffffffffffffffffffffffffffffffffffffff16815260200190815260200160002060008282546127d0919061437c565b925050819055506001600360008473ffffffffffffffffffffffffffffffffffffffff1673ffffffffffffffffffffffffffffffffffffffff16815260200190815260200160002060008282546128279190613ad4565b92505081905550816002600083815260200190815260200160002060006101000a81548173ffffffffffffffffffffffffffffffffffffffff021916908373ffffffffffffffffffffffffffffffffffffffff160217905550808273ffffffffffffffffffffffffffffffffffffffff168473ffffffffffffffffffffffffffffffffffffffff167fddf252ad1be2c89b69c2b068fc378daa952ba7f163c4a11628f55a4df523b3ef60405160405180910390a46128e68383836128f0565b505050565b505050565b505050565b612900848484612685565b61290c84848484612ab1565b61294b576040517f08c379a000000000000000000000000000000000000000000000000000000000815260040161294290614422565b60405180910390fd5b50505050565b606060008203612998576040518060400160405280600181526020017f30000000000000000000000000000000000000000000000000000000000000008152509050612aac565b600082905060005b600082146129ca5780806129b39061417e565b915050600a826129c39190614471565b91506129a0565b60008167ffffffffffffffff8111156129e6576129e5612f11565b5b6040519080825280601f01601f191660200182016040528015612a185781602001600182028036833780820191505090505b5090505b60008514612aa557600182612a31919061437c565b9150600a85612a4091906144a2565b6030612a4c9190613ad4565b60f81b818381518110612a6257612a6161414f565b5b60200101907effffffffffffffffffffffffffffffffffffffffffffffffffffffffffffff1916908160001a905350600a85612a9e9190614471565b9450612a1c565b8093505050505b919050565b6000612ad28473ffffffffffffffffffffffffffffffffffffffff16612c38565b15612c2b578373ffffffffffffffffffffffffffffffffffffffff1663150b7a02612afb611c07565b8786866040518563ffffffff1660e01b8152600401612b1d9493929190614528565b6020604051808303816000875af1925050508015612b5957506040513d601f19601f82011682018060405250810190612b569190614589565b60015b612bdb573d8060008114612b89576040519150601f19603f3d011682016040523d82523d6000602084013e612b8e565b606091505b506000815103612bd3576040517f08c379a0000000000000000000000000000000000000000000000000000000008152600401612bca90614422565b60405180910390fd5b805181602001fd5b63150b7a0260e01b7bffffffffffffffffffffffffffffffffffffffffffffffffffffffff1916817bffffffffffffffffffffffffffffffffffffffffffffffffffffffff191614915050612c30565b600190505b949350505050565b6000808273ffffffffffffffffffffffffffffffffffffffff163b119050919050565b6000604051905090565b600080fd5b600080fd5b60007fffffffff0000000000000000000000000000000000000000000000000000000082169050919050565b612ca481612c6f565b8114612caf57600080fd5b50565b600081359050612cc181612c9b565b92915050565b600060208284031215612cdd57612cdc612c65565b5b6000612ceb84828501612cb2565b91505092915050565b60008115159050919050565b612d0981612cf4565b82525050565b6000602082019050612d246000830184612d00565b92915050565b600081519050919050565b600082825260208201905092915050565b60005b83811015612d64578082015181840152602081019050612d49565b60008484015250505050565b6000601f19601f8301169050919050565b6000612d8c82612d2a565b612d968185612d35565b9350612da6818560208601612d46565b612daf81612d70565b840191505092915050565b60006020820190508181036000830152612dd48184612d81565b905092915050565b6000819050919050565b612def81612ddc565b8114612dfa57600080fd5b50565b600081359050612e0c81612de6565b92915050565b600060208284031215612e2857612e27612c65565b5b6000612e3684828501612dfd565b91505092915050565b600073ffffffffffffffffffffffffffffffffffffffff82169050919050565b6000612e6a82612e3f565b9050919050565b612e7a81612e5f565b82525050565b6000602082019050612e956000830184612e71565b92915050565b612ea481612e5f565b8114612eaf57600080fd5b50565b600081359050612ec181612e9b565b92915050565b60008060408385031215612ede57612edd612c65565b5b6000612eec85828601612eb2565b9250506020612efd85828601612dfd565b9150509250929050565b600080fd5b600080fd5b7f4e487b7100000000000000000000000000000000000000000000000000000000600052604160045260246000fd5b612f4982612d70565b810181811067ffffffffffffffff82111715612f6857612f67612f11565b5b80604052505050565b6000612f7b612c5b565b9050612f878282612f40565b919050565b600067ffffffffffffffff821115612fa757612fa6612f11565b5b612fb082612d70565b9050602081019050919050565b82818337600083830152505050565b6000612fdf612fda84612f8c565b612f71565b905082815260208101848484011115612ffb57612ffa612f0c565b5b613006848285612fbd565b509392505050565b600082601f83011261302357613022612f07565b5b8135613033848260208601612fcc565b91505092915050565b60006020828403121561305257613051612c65565b5b600082013567ffffffffffffffff8111156130705761306f612c6a565b5b61307c8482850161300e565b91505092915050565b61308e81612ddc565b82525050565b60006020820190506130a96000830184613085565b92915050565b6000806000606084860312156130c8576130c7612c65565b5b60006130d686828701612eb2565b93505060206130e786828701612eb2565b92505060406130f886828701612dfd565b9150509250925092565b6000806040838503121561311957613118612c65565b5b600061312785828601612eb2565b925050602083013567ffffffffffffffff81111561314857613147612c6a565b5b6131548582860161300e565b9150509250929050565b60006020828403121561317457613173612c65565b5b600061318284828501612eb2565b91505092915050565b61319481612cf4565b811461319f57600080fd5b50565b6000813590506131b18161318b565b92915050565b600080604083850312156131ce576131cd612c65565b5b60006131dc85828601612eb2565b92505060206131ed858286016131a2565b9150509250929050565b600067ffffffffffffffff82111561321257613211612f11565b5b61321b82612d70565b9050602081019050919050565b600061323b613236846131f7565b612f71565b90508281526020810184848401111561325757613256612f0c565b5b613262848285612fbd565b509392505050565b600082601f83011261327f5761327e612f07565b5b813561328f848260208601613228565b91505092915050565b600080600080608085870312156132b2576132b1612c65565b5b60006132c087828801612eb2565b94505060206132d187828801612eb2565b93505060406132e287828801612dfd565b925050606085013567ffffffffffffffff81111561330357613302612c6a565b5b61330f8782880161326a565b91505092959194509250565b6000806040838503121561333257613331612c65565b5b600061334085828601612eb2565b925050602061335185828601612eb2565b9150509250929050565b60008060006060848603121561337457613373612c65565b5b600084013567ffffffffffffffff81111561339257613391612c6a565b5b61339e8682870161300e565b935050602084013567ffffffffffffffff8111156133bf576133be612c6a565b5b6133cb8682870161300e565b925050604084013567ffffffffffffffff8111156133ec576133eb612c6a565b5b6133f88682870161300e565b9150509250925092565b6000806040838503121561341957613418612c65565b5b600083013567ffffffffffffffff81111561343757613436612c6a565b5b6134438582860161300e565b925050602083013567ffffffffffffffff81111561346457613463612c6a565b5b6134708582860161300e565b9150509250929050565b7f4e487b7100000000000000000000000000000000000000000000000000000000600052602260045260246000fd5b600060028204905060018216806134c157607f821691505b6020821081036134d4576134d361347a565b5b50919050565b7f4552433732313a20617070726f76656420717565727920666f72206e6f6e657860008201527f697374656e7420746f6b656e0000000000000000000000000000000000000000602082015250565b6000613536602c83612d35565b9150613541826134da565b604082019050919050565b6000602082019050818103600083015261356581613529565b9050919050565b7f4552433732313a20617070726f76616c20746f2063757272656e74206f776e6560008201527f7200000000000000000000000000000000000000000000000000000000000000602082015250565b60006135c8602183612d35565b91506135d38261356c565b604082019050919050565b600060208201905081810360008301526135f7816135bb565b9050919050565b7f4552433732313a20617070726f76652063616c6c6572206973206e6f74206f7760008201527f6e6572206e6f7220617070726f76656420666f7220616c6c0000000000000000602082015250565b600061365a603883612d35565b9150613665826135fe565b604082019050919050565b600060208201905081810360008301526136898161364d565b9050919050565b7f506f61703a206e6f6e6578697374656e7420636f6c6c656374696f6e00000000600082015250565b60006136c6601c83612d35565b91506136d182613690565b602082019050919050565b600060208201905081810360008301526136f5816136b9565b9050919050565b600081905092915050565b600061371282612d2a565b61371c81856136fc565b935061372c818560208601612d46565b80840191505092915050565b60006137448284613707565b915081905092915050565b7f506f61703a206e6f6e6578697374656e7420746f6b656e000000000000000000600082015250565b6000613785601783612d35565b91506137908261374f565b602082019050919050565b600060208201905081810360008301526137b481613778565b9050919050565b7f4f776e61626c653a2063616c6c6572206973206e6f7420746865206f776e6572600082015250565b60006137f1602083612d35565b91506137fc826137bb565b602082019050919050565b60006020820190508181036000830152613820816137e4565b9050919050565b60008190508160005260206000209050919050565b60006020601f8301049050919050565b600082821b905092915050565b6000600883026138897fffffffffffffffffffffffffffffffffffffffffffffffffffffffffffffffff8261384c565b613893868361384c565b95508019841693508086168417925050509392505050565b6000819050919050565b60006138d06138cb6138c684612ddc565b6138ab565b612ddc565b9050919050565b6000819050919050565b6138ea836138b5565b6138fe6138f6826138d7565b848454613859565b825550505050565b600090565b613913613906565b61391e8184846138e1565b505050565b5b818110156139425761393760008261390b565b600181019050613924565b5050565b601f8211156139875761395881613827565b6139618461383c565b81016020851015613970578190505b61398461397c8561383c565b830182613923565b50505b505050565b600082821c905092915050565b60006139aa6000198460080261398c565b1980831691505092915050565b60006139c38383613999565b9150826002028217905092915050565b6139dc82612d2a565b67ffffffffffffffff8111156139f5576139f4612f11565b5b6139ff82546134a9565b613a0a828285613946565b600060209050601f831160018114613a3d5760008415613a2b578287015190505b613a3585826139b7565b865550613a9d565b601f198416613a4b86613827565b60005b82811015613a7357848901518255600182019150602085019450602081019050613a4e565b86831015613a905784890151613a8c601f891682613999565b8355505b6001600288020188555050505b505050505050565b7f4e487b7100000000000000000000000000000000000000000000000000000000600052601160045260246000fd5b6000613adf82612ddc565b9150613aea83612ddc565b9250828201905080821115613b0257613b01613aa5565b5b92915050565b6000606082019050613b1d6000830186613085565b8181036020830152613b2f8185612d81565b9050613b3e6040830184613085565b949350505050565b7f4552433732313a206f776e657220717565727920666f72206e6f6e657869737460008201527f656e7420746f6b656e0000000000000000000000000000000000000000000000602082015250565b6000613ba2602983612d35565b9150613bad82613b46565b604082019050919050565b60006020820190508181036000830152613bd181613b95565b9050919050565b7f4552433732313a2061646472657373207a65726f206973206e6f74206120766160008201527f6c6964206f776e65720000000000000000000000000000000000000000000000602082015250565b6000613c34602983612d35565b9150613c3f82613bd8565b604082019050919050565b60006020820190508181036000830152613c6381613c27565b9050919050565b7f45524337323155524953746f726167653a2055524920717565727920666f722060008201527f6e6f6e6578697374656e7420746f6b656e000000000000000000000000000000602082015250565b6000613cc6603183612d35565b9150613cd182613c6a565b604082019050919050565b60006020820190508181036000830152613cf581613cb9565b9050919050565b6000613d088285613707565b9150613d148284613707565b91508190509392505050565b7f506f61703a20636f6c6c656374696f6e20616c72656164792063726561746564600082015250565b6000613d56602083612d35565b9150613d6182613d20565b602082019050919050565b60006020820190508181036000830152613d8581613d49565b9050919050565b60006040820190508181036000830152613da68185612d81565b90508181036020830152613dba8184612d81565b90509392505050565b7f4f776e61626c653a206e6577206f776e657220697320746865207a65726f206160008201527f6464726573730000000000000000000000000000000000000000000000000000602082015250565b6000613e1f602683612d35565b9150613e2a82613dc3565b604082019050919050565b60006020820190508181036000830152613e4e81613e12565b9050919050565b7f4552433732313a207472616e736665722063616c6c6572206973206e6f74206f60008201527f776e6572206e6f7220617070726f766564000000000000000000000000000000602082015250565b6000613eb1603183612d35565b9150613ebc82613e55565b604082019050919050565b60006020820190508181036000830152613ee081613ea4565b9050919050565b7f4552433732313a206d696e7420746f20746865207a65726f2061646472657373600082015250565b6000613f1d602083612d35565b9150613f2882613ee7565b602082019050919050565b60006020820190508181036000830152613f4c81613f10565b9050919050565b7f4552433732313a20746f6b656e20616c7265616479206d696e74656400000000600082015250565b6000613f89601c83612d35565b9150613f9482613f53565b602082019050919050565b60006020820190508181036000830152613fb881613f7c565b9050919050565b7f45524337323155524953746f726167653a2055524920736574206f66206e6f6e60008201527f6578697374656e7420746f6b656e000000000000000000000000000000000000602082015250565b600061401b602e83612d35565b915061402682613fbf565b604082019050919050565b6000602082019050818103600083015261404a8161400e565b9050919050565b7f4552433732313a20617070726f766520746f2063616c6c657200000000000000600082015250565b6000614087601983612d35565b915061409282614051565b602082019050919050565b600060208201905081810360008301526140b68161407a565b9050919050565b7f4552433732314d657461646174613a2055524920717565727920666f72206e6f60008201527f6e6578697374656e7420746f6b656e0000000000000000000000000000000000602082015250565b6000614119602f83612d35565b9150614124826140bd565b604082019050919050565b600060208201905081810360008301526141488161410c565b9050919050565b7f4e487b7100000000000000000000000000000000000000000000000000000000600052603260045260246000fd5b600061418982612ddc565b91507fffffffffffffffffffffffffffffffffffffffffffffffffffffffffffffffff82036141bb576141ba613aa5565b5b600182019050919050565b7f4552433732313a206f70657261746f7220717565727920666f72206e6f6e657860008201527f697374656e7420746f6b656e0000000000000000000000000000000000000000602082015250565b6000614222602c83612d35565b915061422d826141c6565b604082019050919050565b6000602082019050818103600083015261425181614215565b9050919050565b7f4552433732313a207472616e736665722066726f6d20696e636f72726563742060008201527f6f776e6572000000000000000000000000000000000000000000000000000000602082015250565b60006142b4602583612d35565b91506142bf82614258565b604082019050919050565b600060208201905081810360008301526142e3816142a7565b9050919050565b7f4552433732313a207472616e7366657220746f20746865207a65726f2061646460008201527f7265737300000000000000000000000000000000000000000000000000000000602082015250565b6000614346602483612d35565b9150614351826142ea565b604082019050919050565b6000602082019050818103600083015261437581614339565b9050919050565b600061438782612ddc565b915061439283612ddc565b92508282039050818111156143aa576143a9613aa5565b5b92915050565b7f4552433732313a207472616e7366657220746f206e6f6e20455243373231526560008201527f63656976657220696d706c656d656e7465720000000000000000000000000000602082015250565b600061440c603283612d35565b9150614417826143b0565b604082019050919050565b6000602082019050818103600083015261443b816143ff565b9050919050565b7f4e487b7100000000000000000000000000000000000000000000000000000000600052601260045260246000fd5b600061447c82612ddc565b915061448783612ddc565b92508261449757614496614442565b5b828204905092915050565b60006144ad82612ddc565b91506144b883612ddc565b9250826144c8576144c7614442565b5b828206905092915050565b600081519050919050565b600082825260208201905092915050565b60006144fa826144d3565b61450481856144de565b9350614514818560208601612d46565b61451d81612d70565b840191505092915050565b600060808201905061453d6000830187612e71565b61454a6020830186612e71565b6145576040830185613085565b818103606083015261456981846144ef565b905095945050505050565b60008151905061458381612c9b565b92915050565b60006020828403121561459f5761459e612c65565b5b60006145ad84828501614574565b9150509291505056fea2646970667358221220b0dfbce2abd9f684e5ffe5a4f1dc94ad3e86d8cafa0a1617d6a9e5f11c56b26664736f6c63430008110033",
  "immutableReferences": {},
  "source": "//Contract based on [<https://docs.openzeppelin.com/contracts/3.x/erc721>](<https://docs.openzeppelin.com/contracts/3.x/erc721>)\n// SPDX-License-Identifier: MIT\npragma solidity ^0.8.0;\n\nimport \"../node_modules/@klaytn/contracts/token/ERC721/ERC721.sol\";\nimport \"../node_modules/@klaytn/contracts/utils/Counters.sol\";\nimport \"../node_modules/@klaytn/contracts/access/Ownable.sol\";\nimport \"../node_modules/@klaytn/contracts/token/ERC721/extensions/ERC721URIStorage.sol\";\nimport \"./Sbt.sol\";\nimport \"./Pausable.sol\";\n\ncontract Poap is ERC721URIStorage, Ownable, Sbt, Pausable {\n  //utils\n  using Counters for Counters.Counter;\n  Counters.Counter private _tokenIds;\n\n  constructor() ERC721(\"Poap\", \"DYE\") {}\n\n  //events\n  event CreateCollection(string collectionName, string metaURI);\n  event UpdateCollection(string collectionName, string newMetaURI);\n  event MintToken(uint256 tokenId, string tokenURI, uint256 createdAt);\n  \n  //mapping\n\n  // tokenId => collectionName\n  mapping(uint256 => string) private _tokenCollection;\n\n  // tokenId => created time\n  mapping(uint256 => uint256) private _tokenCreatedAt;\n\n  // collectionName => collection owner address\n  mapping(string => string) private _collectionOwners;\n\n  // collectionName => token total supply\n  mapping(string => uint256) private _collectionMinted;\n\n  // collectionName => collection meta URL\n  mapping(string => string) private _collectionMeta;\n\n  //transactions\n\n  /**\n   * @dev transfer admin ownership(change server address)\n   * @param newOwner new server address\n   */\n  function transferOwnership(address newOwner) public override onlyOwner {\n    require(newOwner != address(0), \"Ownable: new owner is the zero address\");\n    _transferOwnership(newOwner);\n  }\n\n  /**\n   * @dev create new collection\n   * @param collectionName unique collection name(same with id)\n   * @param owner string collection owner\n   * @param metaURI string metaData URI, it is copied to tokenURI\n   */\n  function createCollection(\n    string memory collectionName,\n    string memory owner,\n    string memory metaURI\n  ) public onlyOwner whenNotPaused {\n    require(!_existsCol(collectionName), \"Poap: collection already created\");\n\n    _collectionOwners[collectionName] = owner;\n    _collectionMinted[collectionName] = 0;\n    _collectionMeta[collectionName] = metaURI;\n\n    emit CreateCollection(collectionName, metaURI);\n  }\n\n  function updateCollection(\n    string memory collectionName,\n    string memory newMetaURI\n  ) public onlyOwner whenNotPaused existCollection(collectionName){\n    _collectionMeta[collectionName] = newMetaURI;\n\n    emit UpdateCollection(collectionName, newMetaURI);\n  }\n\n  /**\n   * @dev mint new token to users\n   * @param recipient address user address\n   * @param collectionName string collection name what the token is from\n   * @return uint256 new token id\n   */\n  function mintToken(\n    address recipient,\n    string memory collectionName\n  )\n    public\n    onlyOwner\n    whenNotPaused\n    existCollection(collectionName)\n    returns (uint256)\n  {\n    _tokenIds.increment();\n\n    uint256 newItemId = _tokenIds.current();\n\n    _tokenCollection[newItemId] = collectionName;\n    _collectionMinted[collectionName] += 1;\n    string memory tokenURI = _collectionMeta[collectionName];\n\n    _mint(recipient, newItemId);\n    _setTokenURI(newItemId, tokenURI);\n    _lock(newItemId);\n\n    _tokenCreatedAt[newItemId] = block.timestamp;\n\n    emit MintToken(newItemId, tokenURI, _tokenCreatedAt[newItemId]);\n\n    return newItemId;\n  }\n\n  /**\n   * @dev lock token for restricting transfer function(only by owner - if there is an unavoidable circumstance)\n   * @param tokenId uint256 tokenId for lock\n   */\n  function unlock(\n    uint256 tokenId\n  ) public onlyOwner existToken(tokenId) whenNotPaused {\n    _unlock(tokenId);\n  }\n\n  /**\n   * @dev unlock token for restricting transfer function\n   * @param tokenId uint256 tokenId for unlock\n   */\n  function lock(\n    uint256 tokenId\n  ) public onlyOwner existToken(tokenId) whenNotPaused {\n    _lock(tokenId);\n  }\n\n  //view\n\n  /**\n   * @dev get collection name from tokenId\n   * @param tokenId uint256\n   * @return string collection name corresponding to tokenId\n   */\n  function tokenCollection(\n    uint256 tokenId\n  ) public view existToken(tokenId) returns (string memory) {\n    return _tokenCollection[tokenId];\n  }\n\n  /**\n   * @dev get total token supply from collectionName\n   * @param collectionName string\n   * @return uint256 total token supply corresponding to collection name\n   */\n  function collectionMinted(\n    string memory collectionName\n  ) public view existCollection(collectionName) returns (uint256) {\n    return _collectionMinted[collectionName];\n  }\n\n  /**\n   * @dev get collection owner from collectionName\n   * @param collectionName string\n   * @return uint256 collection owner corresponding to collection name\n   */\n  function collectionOwner(\n    string memory collectionName\n  ) public view existCollection(collectionName) returns (string memory) {\n    return _collectionOwners[collectionName];\n  }\n\n  /**\n   * @dev get token created time from tokenId\n   * @param tokenId uint256\n   * @return uint256 token created time corresponding to tokenId\n   */\n  function tokenCreatedAt(\n    uint256 tokenId\n  ) public view existToken(tokenId) returns (uint256) {\n    return _tokenCreatedAt[tokenId];\n  }\n\n  /**\n   * @dev get token lock status\n   * @return bool true if token is locked, or false\n   */\n  function locked(uint256 tokenId) public view override returns (bool) {\n    return super.locked(tokenId);\n  }\n\n  //sbt\n\n  //override below functions for lock transfer function when the token status is locked\n\n  function safeTransferFrom(\n    address from,\n    address to,\n    uint256 tokenId\n  ) public override isUnLocked(tokenId) whenNotPaused {\n    super.safeTransferFrom(from, to, tokenId);\n  }\n\n  function safeTransferFrom(\n    address from,\n    address to,\n    uint256 tokenId,\n    bytes memory data\n  ) public override isUnLocked(tokenId) whenNotPaused {\n    super.safeTransferFrom(from, to, tokenId, data);\n  }\n\n  function transferFrom(\n    address from,\n    address to,\n    uint256 tokenId\n  ) public override isUnLocked(tokenId) whenNotPaused {\n    super.transferFrom(from, to, tokenId);\n  }\n\n  //internal\n\n  function _stringsEquals(string memory s1, string memory s2) private pure returns (bool) {\n    bytes memory b1 = bytes(s1);\n    bytes memory b2 = bytes(s2);\n    uint256 l1 = b1.length;\n    if (l1 != b2.length) return false;\n    for (uint256 i=0; i<l1; i++) {\n        if (b1[i] != b2[i]) return false;\n    }\n    return true;\n}\n\n  /**\n   * @dev confirm exist collection internal(like _exist)\n   */\n  function _existsCol(\n    string memory collectionName\n  ) internal view virtual returns (bool) {\n    return !_stringsEquals(_collectionOwners[collectionName] , \"\");\n  }\n\n  //modifier\n\n  /**\n   * @dev Modifier to confirm token exist\n   */\n  modifier existToken(uint256 tokenId) {\n    require(_exists(tokenId), \"Poap: nonexistent token\");\n    _;\n  }\n\n  /**\n   * @dev Modifier to confirm collection exist\n   */\n  modifier existCollection(string memory collectionName) {\n    require(_existsCol(collectionName), \"Poap: nonexistent collection\");\n    _;\n  }\n}\n",
  "sourcePath": "/home/kdm/hdd/project/BEB-07-final-DidYouEat/contracts/contracts/Poap.sol",
  "compiler": {
    "name": "solc",
    "version": "0.8.17+commit.8df45f5f.Emscripten.clang"
  },
  "schemaVersion": "3.4.11",
  "updatedAt": "2023-01-31T02:43:23.239Z",
  "networkType": "ethereum",
  "devdoc": {
    "kind": "dev",
    "methods": {
      "approve(address,uint256)": {
        "details": "See {IERC721-approve}."
      },
      "balanceOf(address)": {
        "details": "See {IERC721-balanceOf}."
      },
      "collectionMinted(string)": {
        "details": "get total token supply from collectionName",
        "params": {
          "collectionName": "string"
        },
        "returns": {
          "_0": "uint256 total token supply corresponding to collection name"
        }
      },
      "collectionOwner(string)": {
        "details": "get collection owner from collectionName",
        "params": {
          "collectionName": "string"
        },
        "returns": {
          "_0": "uint256 collection owner corresponding to collection name"
        }
      },
      "createCollection(string,string,string)": {
        "details": "create new collection",
        "params": {
          "collectionName": "unique collection name(same with id)",
          "metaURI": "string metaData URI, it is copied to tokenURI",
          "owner": "string collection owner"
        }
      },
      "getApproved(uint256)": {
        "details": "See {IERC721-getApproved}."
      },
      "isApprovedForAll(address,address)": {
        "details": "See {IERC721-isApprovedForAll}."
      },
      "lock(uint256)": {
        "details": "unlock token for restricting transfer function",
        "params": {
          "tokenId": "uint256 tokenId for unlock"
        }
      },
      "locked(uint256)": {
        "details": "get token lock status",
        "returns": {
          "_0": "bool true if token is locked, or false"
        }
      },
      "mintToken(address,string)": {
        "details": "mint new token to users",
        "params": {
          "collectionName": "string collection name what the token is from",
          "recipient": "address user address"
        },
        "returns": {
          "_0": "uint256 new token id"
        }
      },
      "name()": {
        "details": "See {IERC721Metadata-name}."
      },
      "owner()": {
        "details": "Returns the address of the current owner."
      },
      "ownerOf(uint256)": {
        "details": "See {IERC721-ownerOf}."
      },
      "pause()": {
        "details": "called by the owner to pause, triggers stopped state"
      },
      "paused()": {
        "returns": {
          "_0": "true if the contract is paused, false otherwise."
        }
      },
      "renounceOwnership()": {
        "details": "Leaves the contract without owner. It will not be possible to call `onlyOwner` functions anymore. Can only be called by the current owner. NOTE: Renouncing ownership will leave the contract without an owner, thereby removing any functionality that is only available to the owner."
      },
      "safeTransferFrom(address,address,uint256)": {
        "details": "See {IERC721-safeTransferFrom}."
      },
      "safeTransferFrom(address,address,uint256,bytes)": {
        "details": "See {IERC721-safeTransferFrom}."
      },
      "setApprovalForAll(address,bool)": {
        "details": "See {IERC721-setApprovalForAll}."
      },
      "supportsInterface(bytes4)": {
        "details": "See {IERC165-supportsInterface}."
      },
      "symbol()": {
        "details": "See {IERC721Metadata-symbol}."
      },
      "tokenCollection(uint256)": {
        "details": "get collection name from tokenId",
        "params": {
          "tokenId": "uint256"
        },
        "returns": {
          "_0": "string collection name corresponding to tokenId"
        }
      },
      "tokenCreatedAt(uint256)": {
        "details": "get token created time from tokenId",
        "params": {
          "tokenId": "uint256"
        },
        "returns": {
          "_0": "uint256 token created time corresponding to tokenId"
        }
      },
      "tokenURI(uint256)": {
        "details": "See {IERC721Metadata-tokenURI}."
      },
      "transferFrom(address,address,uint256)": {
        "details": "See {IERC721-transferFrom}."
      },
      "transferOwnership(address)": {
        "details": "transfer admin ownership(change server address)",
        "params": {
          "newOwner": "new server address"
        }
      },
      "unlock(uint256)": {
        "details": "lock token for restricting transfer function(only by owner - if there is an unavoidable circumstance)",
        "params": {
          "tokenId": "uint256 tokenId for lock"
        }
      },
      "unpause()": {
        "details": "called by the owner to unpause, returns to normal state"
      }
    },
    "version": 1
  },
  "userdoc": {
    "events": {
      "Locked(uint256)": {
        "notice": "Emitted when the locking status is changed to locked."
      },
      "Unlocked(uint256)": {
        "notice": "Emitted when the locking status is changed to unlocked."
      }
    },
    "kind": "user",
    "methods": {},
    "version": 1
  }
}